:100000000C9452030C9499030C9499030C94990347
:100010000C9499030C9499030C9499030C949903F0
:100020000C9499030C9499030C94A5220C947823B6
:100030000C94221A0C9499030C9499030C94990330
:100040000C9499030C9499030C9499030C949903C0
:100050000C9499030C948A1A0C9499030C949903A8
:100060000C9499030C9499030C9499030C949903A0
:100070000C9499030C9499030C9499030C94990390
:100080000C9499030C9499030C9499030C94990380
:100090000C9499030C9499030C9499030C94990370
:1000A0000C9499030C9499030C94990353425500B2
:1000B000540056005F006100600057005C005E0065
:1000C0005D00580059005B005A0000006241630067
:1000D000A600010000702A000100010001002900B3
:1000E000010001000100B20068006A006900000020
:1000F00001004C00010001000100010001000100AD
:1001000001000100010001000100010001000100E7
:1001100001000000010001000100010001000100D8
:1001200001000100010001000100010001000100C7
:1001300001000100010000000100010001000100B8
:1001400001000100010001000100010001000100A7
:100150000100010001000100010000000100010098
:100160000100010001000100010001000100010087
:100170000100010001000100010001000100000078
:100180000100010001000100010001000100010067
:100190000100010001000100010001000100010057
:1001A0000100000001000100010001000100010048
:1001B0000100010001000100010001000100010037
:1001C0000100010001000000010001000100010028
:1001D0000100010001000100010001000100010017
:1001E0000100010001000100010000000100010008
:1001F00001000100010001000100010001000100F7
:1002000001000100010001000100010001000000E7
:1002100001000100010001000100010001000100D6
:1002200001000100010001000100010001000100C6
:1002300001000000010001000100010001000100B7
:1002400001000100010001000100010001000100A6
:100250000100010001000000010001000100010097
:100260000100010001000100010001000100010086
:100270000100010001000100010000000100010077
:100280000100010001000100010001000100010066
:100290000100010001000100010001000100000057
:1002A0000100010001000100010001000100010046
:1002B0000100010001000100010001000100010036
:1002C0000100000001000100010001000100010027
:1002D0000100010001000100010001000100010016
:1002E00001000100010000000100010064321464FB
:1002F0003214783C1E1E140A0500000000010101A2
:100300000202030405050607090A0B0C0E0F111261
:10031000141517191B1D1F212325282A2C2F3134B2
:1003200036393B3E414346494C4F5255585A5D6120
:1003300064676A6D707376797C7F8386898C8F920F
:1003400095989B9EA2A5A7AAADB0B3B6B9BCBEC1F5
:10035000C4C6C9CBCED0D3D5D7DADCDEE0E2E4E642
:10036000E8EAEBEDEEF0F1F3F4F5F6F8F9FAFAFB62
:10037000FCFDFDFEFEFEFFFFFFFFFFFFFFFEFEFE9A
:10038000FDFDFCFBFAFAF9F8F6F5F4F3F1F0EEED09
:10039000EBEAE8E6E4E2E0DEDCDAD7D5D3D0CECB98
:1003A000C9C6C4C1BEBCB9B6B3B0ADAAA7A5A29E0A
:1003B0009B9895928F8C898683807C797673706DFB
:1003C0006A6764615D5A5855524F4C494643413EF5
:1003D0003B393634312F2C2A282523211F1D1B1988
:1003E00017151412110F0E0C0B0A09070605050448
:1003F00003020201010100000000000000000101F1
:1004000001010101010101020202020202020202D3
:1004100003030303030303030404040404040505A2
:100420000505050606060606070707070808080863
:100430000909090A0A0A0A0B0B0B0C0C0C0D0D0D0D
:100440000E0E0F0F0F10101111111212131314149E
:10045000151516161717181819191A1A1B1C1C1D12
:100460001D1E1F1F20202122222324252526272769
:1004700028292A2B2B2C2D2E2F2F30313233343597
:1004800036363738393A3B3C3D3E3F4041424344A3
:10049000464748494A4B4C4D4F5051525355565779
:1004A000585A5B5C5E5F606263646667696A6C6D24
:1004B0006E707173747678797B7C7E80818384869C
:1004C000888A8B8D8F91929496989A9B9D9FA1A3D9
:1004D000A5A7A9ABADAFB1B3B5B7B9BBBDBFC1C4DB
:1004E000C6C8CACCCFD1D3D6D8DADCDFE1E4E6E89F
:1004F000EBEDF0F2F5F7FAFCFF12036B0065007903
:100500000062006F00610072006400000016037159
:10051000006D006B006200750069006C006400658E
:1005200000720000000403090409026D00040100C8
:10053000A0FA0904000001030101000921110100D2
:10054000012240000705810308000A090401000197
:1005500003010200092111010001224D000705825B
:100560000308000A09040200010300000009211128
:100570000100012236000705830308000A0904036D
:1005800000010300000009211101000122390007C8
:100590000584032000011201100100000008EDFE97
:1005A000606001000102000105010906A1010507C3
:1005B00019E029E715002501950875018102050854
:1005C00019012905950575019102950175039101A0
:1005D0000507190029F71500250195F87501810215
:1005E000C005010980A10185021601002603001A39
:1005F00081002A8300751095018100C0050C090156
:10060000A1018503160100269C021A01002A9C0202
:10061000751095018100C005010902A1010901A120
:1006200000050919012905150025019505750181A8
:1006300002950175038101050109300931158125F4
:100640007F95027508810609381581257F9501750A
:10065000088106050C0A38021581257F9501750869
:100660008106C0C005010906A101050719E029E7B7
:100670001500250195087501810295017508810114
:100680000508190129059505750191029501750364
:1006900091010507190029FF150026FF0095067531
:1006A000088100C011241FBECFEFDAE0DEBFCDBF4E
:1006B00004B603FE27C080914E0290914F02A09194
:1006C0005002B09151028730904BA740B04BD1F40B
:1006D00010924E0210924F0210925002109251024C
:1006E00014BE84B7877F84BF0FB6F894A895809115
:1006F0006000886180936000109260000FBEE0E0AF
:10070000F8E3099511E0A0E0B1E0ECE9FDE402C0F6
:1007100005900D92A433B107D9F722E0A4E3B1E02C
:1007200001C01D92AE34B207E1F70E94F21F0C9493
:10073000CC260C94000090E080E008950895089580
:1007400081E00895089581E008950C94A0030E942B
:1007500099122FEF84E39CE0215080409040E1F714
:1007600000C000000C94AF1AFF920F931F93CF9319
:10077000DF938C01FC01C081D181809182018111C4
:1007800048C08281882309F43FC0CE010E94FC1733
:10079000F82E682FCE010E94A617BE018F2D0E9451
:1007A0005005EC01B8010E94A503882309F478C024
:1007B000B801CE010E945E07882309F471C0C633D8
:1007C000F0E7DF0709F484C0C0F5C53190E7D90729
:1007D00028F5C230E0E7DE0708F099C0C115F0E760
:1007E000DF0709F458C0C130D04709F460C081E088
:1007F0008093360180933701C801DF91CF911F911B
:100800000F91FF900C94A303CE010E94D317F82EF2
:10081000C4CFCE010E94FC17BE01C1CFC43390E704
:10082000D90709F44EC0C533D04709F7F8018281D2
:100830008823B1F10E94260B33C0CA33F0E7DF07EB
:1008400009F457C070F4F8018281C833F0E7DF077C
:1008500009F44AC008F443C0882311F10E946A0ACF
:100860001FC0CC33E0E7DE0709F4D5C008F448C068
:10087000CD33D04709F0BBCFF8018281882309F43A
:10088000F1C0109237010E94541A90933501809361
:10089000340180E2CDC0F801828181110E94A7035A
:1008A00080E0DF91CF911F910F91FF900895F801A3
:1008B00082818823A9F38091F70181608093F701F9
:1008C000EFCFF8018281882359F30E94300BE8CFE3
:1008D000F8018281882321F30E941B0AE1CF88233B
:1008E000F9F20E94330ADCCF8823D1F20E94520A27
:1008F000D7CFF8018281882399F20E94820AD0CF53
:10090000F8018281882361F20E949A0AC9CFF80116
:100910008281882309F470CF0E94B419811102C02A
:100920000E9493190E94D11990E090934002809305
:100930003F02FE01E350F04780913F028160E231C7
:10094000F105C8F4EA55FB4F0C947E26B804C404A4
:10095000C804CC04D004D404D804DC04E004E404C7
:10096000E804EC04F004F404F804FC0400050405B5
:1009700080913F02826080933F0280913F020E94FB
:10098000D5190E9499128CCF80913F028460F3CFD9
:1009900080913F028860EFCF80913F028061EBCF72
:1009A00080913F028062E7CF80913F028064E3CF75
:1009B00080913F028068DFCF80913F028460EACF60
:1009C00080913F028E7FD7CF80913F028D7FD3CF22
:1009D00080913F028B7FCFCF80913F02877FCBCF2B
:1009E00080913F028F7EC7CF80913F028F7DC3CF22
:1009F00080913F028F7BBFCF80913F028F77BBCF2B
:100A000080913F028B7FEACF90913F02892F97FB25
:100A100087F98058B0CFF8018281882361F0109265
:100A200036010E94541A909335018093340182E07C
:100A30000E94231035CF8091360181110FC0809123
:100A40003401909135010E94601A883C910530F480
:100A500086E20E94F80E86E20E94D40F82E00E9495
:100A60002A101ECF8091370181110FC0809134016F
:100A7000909135010E94601A883C910530F487E21C
:100A80000E94F80E87E20E94D40F80E2E8CF0C9417
:100A9000AD070C94AF070C94A2030C944B0508957A
:100AA000E72FF0E099E0899FE00DF11D1124EE0F92
:100AB000FF1FE60FF11DEE0FFF1FE455FF4F85915D
:100AC00094910895FC01EE0FFF1FE451FD4F8591B5
:100AD000949108950E9450050E94DD06811520E43E
:100AE000920708F08DC0811540E3940708F0E8C034
:100AF000803E910508F071C0803C910508F0CCC0A3
:100B0000883A910580F4853A910508F0CAC0813091
:100B1000910509F46EC020F08430910508F069C099
:100B200090E080E008958D3B9105D0F7883A9105DB
:100B300009F404C1893A910509F403C18A3A91057F
:100B400009F402C18B3A910509F401C18C3A91056F
:100B500009F400C18B3B910509F4FFC08C3B910562
:100B600009F4FEC08D3A910509F4FDC0803B910562
:100B700009F4FCC08E3A910509F4FBC08F3A910547
:100B800009F4FAC0813B910509F4F9C0823B910553
:100B900009F4F8C0833B910509F4F7C0843B910543
:100BA00009F4F6C0853B910509F4F5C0863B910533
:100BB00009F4F4C0873B910509F4F3C0883B910523
:100BC00009F4F2C0893B910509F4F1C08A3B910513
:100BD00009F4F0C080E094E408958F3F910509F096
:100BE00048F4803F910508F067C0883E910508F001
:100BF00097CF0895811520E2920708F05FC008950D
:100C0000811543E5940760F5811522E5920708F008
:100C100062C0811541E5940708F058C0811520E5B0
:100C2000920708F450C09C0154E0369527955A95D8
:100C3000E1F7922F9370482F437021E030E002C01B
:100C4000220F331F4A95E2F73C68392B869586952B
:100C5000837040E2849FC0011124822B932B08955E
:100C6000811545E5940750F4811524E5920708F4B1
:100C700046C0982F8827846F906A0895811546E5AD
:100C8000940708F450C09C0130569F7021153041E4
:100C900008F046CF90620895805C91090E94620539
:100CA0000895853A910509F443C0863A910509F003
:100CB00042C082E890E40895906508959F70EECF59
:100CC0009927906C08959F70906A0895982F8827AF
:100CD000816F906A0895AC014370552721E030E0A0
:100CE00002C0220F331F4A95E2F78695869540E2AF
:100CF000849FC0011124822B932B9C680895AC0122
:100D00004370552721E030E002C0220F331F4A957F
:100D1000E2F78695869540E2849FC0011124822BDC
:100D2000932B9A680895982F882788279F71B2CFB0
:100D300081E890E4089583E890E4089582EE94E4D5
:100D4000089589EE94E408958AEE94E4089585EB7D
:100D500094E4089586EB94E4089583EB94E4089575
:100D600084EB94E4089587EB94E408958CEC94E488
:100D700008958DEC94E4089583E895E408958AE855
:100D800095E4089582E995E4089584E995E4089549
:100D900081E296E4089583E296E4089584E296E47D
:100DA000089585E296E4089586E296E4089587E240
:100DB00096E408958AE296E41CCF8238910549F1C1
:100DC000B0F48133910509F45CC048F4893291058F
:100DD00009F452C08A32910509F458C00895853348
:100DE000910509F444C08933910599F00895833E33
:100DF000910531F138F4803E910591F0823E9105E4
:100E0000B1F00895863E910511F1873E910541F1BB
:100E1000089520913F022370C9F080EE90E008957C
:100E200020913F0220FF12C089E390E008952091B5
:100E30003F0222FF0BC024FF2EC090E080E0089507
:100E400020913F0222FD2AC024FDF7CF0895209172
:100E50003F0223FFFBCF24FDF0CF87EE90E0089503
:100E600020913F0223FFF0CF86EE90E0089520917D
:100E70003F0225FD16C0089520913F0225FD14C0B4
:100E8000089520913F0226FD12C0089520913F024F
:100E900026FD10C0089583EE90E0089582EE90E064
:100EA000089589E290E0089585E390E008958AE24C
:100EB00090E0089581E390E0C9CF08950F931F93C8
:100EC000CF938C01FB018281811106C0C1E08C2F80
:100ED000CF911F910F910895C0914501C11125C077
:100EE0000531104799F70E945D0781E08093450125
:100EF0000E94541A90934401809343011092380148
:100F000010923A011092390110923C0110923B016B
:100F100010923E0110923D011092400110923F014B
:100F20001092420110924101D2CF809143019091E1
:100F300044010E94601A883C910540F68091380176
:100F4000E82FF0E0EE0FFF1FE75CFE4F11830083F8
:100F50008F5F80933801C0E0BACF0C949E030C944D
:100F60009F0385B7806885BF85B7806885BF239854
:100F70002B9A53985B9AA6E1B1E061E070E08D9105
:100F8000E82FE295EF70F0E041A18F709B0101C066
:100F9000220F8A95EAF7922F9095942391A382A12C
:100FA000822B82A381E0AF31B80749F7EFE4F1E08B
:100FB000A6E4B1E011921D9281E0E835F807D1F77F
:100FC0000C9447052F923F925F926F927F928F927F
:100FD0009F92AF92BF92CF92DF92EF92FF920F93C8
:100FE0001F93CF93DF9324E1E22E21E0F22E10E055
:100FF00000E0CC24C394D12CBB24B394D7018D91B1
:101000007D01E82FE295EF70F0E091A18F70A601CD
:1010100001C0440F8A95EAF7892F842B81A392A1FE
:10102000A42EA0949A2192A3B0EABA95F1F7C60132
:10103000002E01C0880F0A94EAF7682E782E70946B
:1010400096E4292E91E0392E66E171E0D10130E07D
:101050005C90EB012991BE01822E82948FE0882260
:10106000912CE40188A190E02F7002C0959587959E
:101070002A95E2F780FD4FC0862D85298C938C91AF
:10108000581231E01196D1E06F317D0709F781A147
:101090008A2181A382A1482B42A3332341F0B0923D
:1010A00058010E94541A90935A01809359010130BB
:1010B000110571F5809158018823A9F0809159019B
:1010C00090915A010E94601A069768F0EFE4F1E0EF
:1010D0008FE491E0D1012D911D0121938A179B0787
:1010E000C9F7109258010E94490581E0DF91CF9124
:1010F0001F910F91FF90EF90DF90CF90BF90AF9036
:101100009F908F907F906F905F903F902F90089569
:1011100001E010E073CF872D8521B0CFE82FF0E0FC
:10112000E15BFE4F80810895089535B1242F20950D
:10113000232335B1432B3FB7F894FC01680F791F87
:10114000E617F70711F43FBF0895819198E045B97C
:10115000000000C087FF25B9880F000000C000C054
:1011600000C025B900C09A9591F7EACF24B1242B8D
:1011700024B99B01220F331F620F731F0E94950831
:1011800087EC90E00197F1F700C00000089540E27D
:101190000C94B608CF92DF92EF92FF920F931F93B9
:1011A000CF93DF93E901662309F466C0E42EF12CA6
:1011B000EFEFF0E0E61BF109EE9D8001EF9D100DD1
:1011C000FE9D100D1124212FE12FFF27EE1AFF0A9B
:1011D0005CE3C52ED12CB6010E945626FB01BC0152
:1011E000E69EC001E79E900DF69E900D1124B6017B
:1011F0000E945626E230F10589F168F4812F262FEE
:10120000210F309781F0242F461B319761F080E049
:1012100020E040E008C0E430F10551F128F1842FCE
:10122000861B3597A1F7E42FF0E0E750FC4F44917F
:10123000E22FF0E0E750FC4F9491E82FF0E0E75008
:10124000FC4FE49149839883EA83DF91CF911F910A
:101250000F91FF90EF90DF90CF900895862F810F30
:10126000E42F412F2E2FDFCFE42FE61B842FF9CF61
:10127000842F462F410FD7CF842F242FD4CF88E03F
:1012800090E00C948C26AB01BC0188E090E00C94BB
:10129000AA26E4E2F2E083E08083109225028FEF39
:1012A00082838383609124027091250280912602BB
:1012B000909127020C94430980912402ECE2F2E021
:1012C00080FF06C065E070E08CE292E00C94C708F5
:1012D000118210821282339682E0EB33F807C1F755
:1012E000F1CFECE2F2E0818360834283339692E0B7
:1012F000EB33F907C1F70C945C09EF92FF920F935F
:101300001F93CF93DF9300D01F92CDB7DEB7182F76
:10131000E92EF62E042F8091240290912502A091AF
:101320002602B09127028093280290932902A0936D
:101330002A02B0932B028091240280FF1FC09E01DD
:101340002F5F3F4F812F9E2D0E94CA088091280257
:1013500010FB87F9809328021695809129028078E6
:10136000812BE0FA87F980932902F0922A020093F8
:101370002B024B8169818A810E9471090F900F9025
:101380000F90DF91CF911F910F91FF90EF900895F3
:101390000F931F93CF93DF93EC01062F142F90919F
:1013A000240290FF43C0892F8E77823021F5CE0131
:1013B0000E947D0980912402C0FB87F9809324025A
:1013C000C695809125028078C82BD0FBC7F9C093C1
:1013D0002502009326021093270260912402709147
:1013E00025028091260290912702DF91CF911F91D3
:1013F0000F910C944309892F86958F732EE3280F44
:101400002F73243018F410912702D4CF865C8F7389
:10141000893080F6991F9927991FD0912502CD2FE9
:10142000CC0FC92BD7FBDD27D0F9C4CFDF91CF91EB
:101430001F910F910895E4E2F2E02081221F2227FC
:10144000221F30912502432F440F842F822B37FB1C
:10145000992790F9089668E671E00E946A26438110
:1014600062810C94C80920912402221F2227221F86
:1014700030912502432F440F842F822B37FB99276D
:1014800090F98830910540F4805A9E4F4091270290
:10149000609126020C94C809089768E671E00E94E2
:1014A0006A26F4CF60912602683F90F4685F8091CD
:1014B0002402881F8827881F90912502292F220F38
:1014C00097FB992790F940912702822B0C94C80929
:1014D0006FEFEDCF60912602683090F068508091F8
:1014E0002402881F8827881F90912502292F220F08
:1014F00097FB992790F940912702822B0C94C809F9
:1015000060E0EDCF40912702483F90F4485F809122
:101510002402881F8827881F90912502292F220FD7
:1015200097FB992790F960912602822B0C94C809A9
:101530004FEFEDCF40912702483090F04850809116
:101540002402881F8827881F90912502292F220FA7
:1015500097FB992790F960912602822B0C94C80979
:1015600040E0EDCF9091240290FF3BC09178811133
:1015700026C092609093240260912402709125020B
:1015800080912602909127020E94430980912402B3
:10159000982F9E779230D9F410927001881F882777
:1015A000881F90912502292F220F97FB992790F9E8
:1015B0004091270260912602822B0C94C809893140
:1015C00010F09063D7CF8F73880F982BD3CF982FBD
:1015D0009695925C9F73963108F791E09093700115
:1015E000DDCF08958091F70181608093F70181E05C
:1015F000809371010E94B419811104C00E94931953
:101600000E9449090E943F096093240270932502B9
:1016100080932602909327026E7761F40E94490915
:101620000E943F0960932402709325028093260252
:101630009093270281E0809370018091240280FFC3
:1016400004C086958F730C94B20A08958091240289
:1016500086958F738F5F893108F081E00C94B20A10
:1016600090912402892F8E7F90FF816080932402C5
:1016700060912402709125028091260290912702A8
:101680000E9443098091240280FF04C086958F73D5
:101690000C94B20A109270012FEF80E792E0215073
:1016A00080409040E1F700C000000C945C09CF93AB
:1016B000C82F80916E0190916F010E94601AEC2FEB
:1016C000F0E0EB50FD4FE491E817190609F010F532
:1016D0000E94541A90936F0180936E01E0916D0106
:1016E000F0E0E750FD4F449180912402881F882745
:1016F000881F90912502292F220F97FB992790F997
:1017000060912602822B0E947D0980916D018F5F7E
:1017100080936D01CF910895CF93C82F80916B0175
:1017200090916C010E94601AEC2FF0E0EE50FD4F9A
:10173000E491E817190609F0E8F40E94541A90930E
:101740006C0180936B014091270260912602809189
:10175000690190916A010E947D09809169019091CF
:101760006A01019668E671E00E94562690936A012C
:1017700080936901CF910895CF92DF92FF920F93EA
:101780001F93CF93DF93F82E8091670190916801AA
:101790000E94601AEF2DE695F0E0EE50FD4FE491C7
:1017A000E817190609F0B0F50E94541A90936801E1
:1017B000809367010CE212E0D0E0C0E088E6C82E1A
:1017C000DD24D39480916501909166018C0F9D1F5B
:1017D000B6010E9456269801409127026091260288
:1017E0000E94CA08C85BDF4F0D5F1F4FC83681E0FB
:1017F000D80741F70E945C098091650190916601CC
:10180000F0FE10C00196BE010E945626909366011C
:1018100080936501DF91CF911F910F91FF90DF9031
:10182000CF9008950197F2CFAF92BF92CF92DF92FF
:10183000EF92FF920F931F93CF93DF93C82FFF2454
:10184000FA9480FD02C0FF24F3948091630190918B
:1018500064010E94601AC695EC2FF0E0E151FD4F43
:10186000E491E817190611F008F053C00E94541AC9
:101870009093640180936301CCE2D2E010E000E039
:1018800097E0C92ED12C198218821A8287E0A82EDF
:10189000B12CE12C809162018E0D87FD8B5F082EAB
:1018A000000C990B08171907E9F4209127022A9DCB
:1018B000C0012B9D900D1124B6010E946A26462F6F
:1018C00080912402881F8827881F90912502592F14
:1018D000550F97FB992790F99E0160912602852B61
:1018E0000E94CA08EF0C81E0A81AB10899F60F5FB0
:1018F0001F4F23960530110531F60E945C09809137
:10190000620191E0F91212C081110EC084E080934F
:101910006201DF91CF911F910F91FF90EF90DF90C7
:10192000CF90BF90AF9008958150F1CF90E0019695
:10193000B8010E946A26EBCFBF92CF92DF92EF925E
:10194000FF920F931F93CF93DF93CDB7DEB72F97FF
:101950000FB6F894DEBF0FBECDBF182F8091600187
:10196000909161010E94601AE12FF0E0E451FD4F77
:10197000E491E817190611F008F07AC00E94541A91
:1019800090936101809360018E010F5F1F4FF12CD6
:10199000E12C6801D80111961C9211971C921296A5
:1019A0001C92B12C9091000180915F01B99E800D35
:1019B000112485300CF084E087FD80E0082E000CB7
:1019C000990BE816F906A1F480912402881F882754
:1019D000881F90912502592F550F97FB992790F951
:1019E00098014091270260912602852B0E94CA0827
:1019F000B394B7E0BB12D6CFEFEFEE1AFE0A0D5F3D
:101A00001F4FF5E0EF16F10429F62CE232E009E071
:101A100010E055E0E52EF12CC801B7010E946A26BE
:101A2000FC01EE0FFF1FE80FF91FEC0DFD1D81817A
:101A3000D90111968C93119780818C938281129693
:101A40008C930F5F1F4F2D5F3F4F0E30110521F715
:101A50000E945C099091000180915F019130E1F456
:101A60008A3FB4F489EF80935F018FEF8093000188
:101A70002F960FB6F894DEBF0FBECDBFDF91CF918A
:101A80001F910F91FF90EF90DF90CF90BF9008953E
:101A9000815080935F01ECCF8C302CF08BE08093F1
:101AA0005F0181E0E3CF8F5FF4CFFF920F931F932D
:101AB000CF93DF9380915D0190915E010E94601A47
:101AC000883E9340C8F10E94541A90935E0180931F
:101AD0005D0180915B0190915C0101968170992775
:101AE00090935C0180935B0125E0289F8001299FF2
:101AF000100D1124CCE2D2E080E5F82EC8018170EF
:101B000099279E014091270260912602FC01FE9ECA
:101B1000C001FF9E900D11240E94CA080B5F1F4F49
:101B20002396F2E0CB33DF0749F7DF91CF911F9186
:101B30000F91FF900C945C09DF91CF911F910F9151
:101B4000FF90089580917001882371F180912402A3
:101B500086958F739EE3980F9F73943018F482508C
:101B60000C94570B9AE3980F9F73933018F4865098
:101B70000C948C0B97E3980F9F73963018F4895050
:101B80000C94BC0B91E3980F9F73963018F48F5010
:101B90000C94140C9BE2980F9F73933018F48551AA
:101BA0000C949C0C0C94550D0895909377018093A0
:101BB00076010895E0917601F0917701309721F058
:101BC0000190F081E02D099480E00895E091760184
:101BD000F0917701309721F00280F381E02D099494
:101BE0000895E0917601F0917701309721F004801B
:101BF000F581E02D099408952091740130917501CB
:101C00002817390771F09093750180937401E09162
:101C10007601F0917701309721F00680F781E02D71
:101C200009940895209172013091730128173907A2
:101C300071F09093730180937201E0917601F091BD
:101C40007701309721F00084F185E02D0994089503
:101C500008950C94280E0E944B1A0E94B1070E940E
:101C6000091B0C94F20ABF92CF92DF92EF92FF927F
:101C70000F931F93CF93DF93CDB7DEB72A970FB69D
:101C8000F894DEBF0FBECDBF0E94E20789E7C82EE1
:101C900081E0D82E10E000E0B02E802F0E948E0848
:101CA000F82EF601E1906F01E81609F450C080911A
:101CB000F70181FD0E949408EF24E0FC45C0E1FE9D
:101CC00046C091E081E09E83BF8221E030E069015F
:101CD00002C0CC0CDD1C8A95E2F78F2D90E08C21A0
:101CE0009D21892B09F420E028870E94541A8160E5
:101CF000782F9A8789874E815F8168858A850E94BF
:101D0000CE0EF801E758FE4F8081C826C0820E949F
:101D10008C1D0E94DA0D90917801891779F10E944B
:101D2000DA0D809378012A960FB6F894DEBF0FBEC5
:101D3000CDBFDF91CF911F910F91FF90EF90DF907A
:101D4000CF90BF900C944D0590E080E0BCCF0F5F2A
:101D50001F4F0930110509F09FCF8FEF89838A83C8
:101D60001B820E94541A8160782F9D838C83498145
:101D70005A816B818D810E94CE0EC9CF2A960FB6F3
:101D8000F894DEBF0FBECDBFDF91CF911F910F91B1
:101D9000FF90EF90DF90CF90BF900895CF93DF93A7
:101DA000CDB7DEB72B970FB6F894DEBF0FBECDBF11
:101DB0004F83588769877A878B871E821D8285E0CB
:101DC000FE013796DE01119601900D928A95E1F79A
:101DD00049815A816B817C818D819E812B960FB6C2
:101DE000F894DEBF0FBECDBFDF91CF910C944B15A1
:101DF000882309F4D8C0823871F40E94DA0D81FD7D
:101E0000D2C089E30E949C180E94641989E30E9451
:101E1000D9180C946419833859F40E94DA0D80FDA6
:101E2000C2C083E50E949C180E94641983E5EFCF2D
:101E3000843859F40E94DA0D82FDB5C087E40E940F
:101E40009C180E94641987E4E2CF9CEF980F913AA6
:101E500018F40E949C18DDCF90E2980F983050F44F
:101E6000877091E001C0990F8A95EAF7892F0E9447
:101E70001B19CFCF9BE5980F933070F4853A31F062
:101E8000863A39F083E890E00C94FC0D81E890E00C
:101E9000FBCF82E890E0F8CF98E5980F953108F0F5
:101EA00082C0883A09F440C0893A09F440C08A3AAD
:101EB00009F440C08B3A09F440C08C3A09F440C0A0
:101EC0008B3B09F440C08C3B09F440C08D3A09F4C7
:101ED00040C0803B09F440C08E3A09F440C08F3ABC
:101EE00009F440C0813B09F440C0823B09F440C082
:101EF000833B09F440C0843B09F440C0853B09F4AE
:101F000040C0863B09F440C0873B09F440C0883B91
:101F100009F440C0893B09F440C08A3B09F440C041
:101F200090E080E00C94120E82EE90E0FBCF89EE00
:101F300090E0F8CF8AEE90E0F5CF85EB90E0F2CF1D
:101F400086EB90E0EFCF83EB90E0ECCF84EB90E07A
:101F5000E9CF87EB90E0E6CF8CEC90E0E3CF8DEC1F
:101F600090E0E0CF83E891E0DDCF8AE891E0DACF3E
:101F700082E991E0D7CF84E991E0D4CF81E292E089
:101F8000D1CF83E292E0CECF84E292E0CBCF85E264
:101F900092E0C8CF86E292E0C5CF87E292E0C2CF5E
:101FA0008AE292E0BFCF0895882309F44BC08238BB
:101FB00071F40E94DA0D81FF45C089E30E949C18EC
:101FC0000E94641989E30E94D9180C94641983381B
:101FD00059F40E94DA0D80FF35C083E50E949C18F9
:101FE0000E94641983E5EFCF843859F40E94DA0D1A
:101FF00082FF28C087E40E949C180E94641987E42D
:10200000E2CF9CEF980F913AF0F290E2980F98305F
:1020100050F4877091E001C0990F8A95EAF7892FF3
:102020000E942119D2CF9BE5980F933020F490E0C5
:1020300080E00C94FC0D885A853120F490E080E01B
:102040000C94120E0895882321F00E941B190C9401
:1020500064190895882321F00E9421190C946419B1
:1020600008958F929F92AF92BF92DF92EF92FF926C
:102070000F931F93CF93DF937C01D62FC72FFC01C3
:10208000058102950F70128111110E943A190E9468
:102090009518D82E882371F0112321F180E28D0F3D
:1020A000883000F182E00E947F180E94951891E02C
:1020B000D82ED926EC2FE295EF70F0E0EE59FF4EC6
:1020C0000C947E2674107410C410C41006112211D2
:1020D000A110A1102D11A110C511C5113812A11008
:1020E000A1104112D12CE6CF0C2F0F70C07F11F040
:1020F0000295007F1123A9F0002359F080E28D0F93
:10210000883010F0D11109C0802F0E941B190E9445
:1021100064198D2F0E94F80E14C0802F0E942C1974
:10212000F6CF8D2F0E94D40F002359F080E28D0F3F
:10213000883010F0D11124C0802F0E9421190E94F4
:102140006419DD2009F4A4C10E94721880FDA0C1A9
:10215000F70112820E946C180E94EA16C7010E94C1
:1021600054120E946C18DF91CF911F910F91FF9034
:10217000EF90DF90BF90AF909F908F900C940B17D3
:10218000802F0E943219DBCFFC2FFF70BF2EC07F43
:10219000C03219F0B29480EFB822DD2369F0D1305B
:1021A00029F1112369F1002359F0F701858180FF9E
:1021B000B0CF8F70858304C0112361F0011104C07A
:1021C0008B2D0E942310BDCF8B2D0130D1F70E94A3
:1021D0004E19B7CF011106C00E9451198B2D0E94D4
:1021E0002A10AFCF013009F4ACCFF6CF112321F084
:1021F000063008F0A6CFE4CF053008F0A2CFEECF2E
:10220000002361F38D2F0E94D40F9BCF8C2F8695D6
:102210008695837069F0813009F093CF8D2F9C2FC4
:102220009370111102C090E080E00E94120E89CFDD
:102230008D2F9C2F9370111102C090E080E00E94BE
:10224000FC0D7FCF8D2F112329F00E94951C0E9439
:10225000811D77CF0E94FD1CFACF8C2F837009F06F
:1022600047C011116ECF2D2F229526952770220F72
:10227000220F6D2F6F70862E912CB12CA12C022E67
:1022800004C0880C991CAA1CBB1C0A94D2F760E0FD
:1022900070E0CB01D4FF0FC06FE070E080E090E011
:1022A00004C0660F771F881F991F2A95D2F7609583
:1022B000709580959095C695C695C370C23051F0C3
:1022C00080F4682979298A299B29C13071F00E94FC
:1022D000931637CF682979298A299B290E94AF163E
:1022E00030CF0E949316C501B4010E94771629CF02
:1022F0008695112311F08C2F8170882309F421CF4A
:102300002D2F229526952770220F220F6D2F6F708B
:10231000862E912CB12CA12C022E04C0880C991C65
:10232000AA1CBB1C0A94D2F760E070E0CB01D4FF7A
:102330000FC06FE070E080E090E004C0660F771F90
:10234000881F991F2A95D2F7609570958095909572
:10235000C695C695C370C23051F080F468297929BA
:102360008A299B29C13071F00E946D17EACE682935
:1023700079298A299B290E948917E3CE0E946D172B
:10238000C501B4010E945117DCCEE0E2ED0FE5314A
:1023900008F062C0F0E0E153FE4E0C947E26E4119A
:1023A000E411E411E411E411E411E411E411E41185
:1023B000E411E411E411E411E411E411E411F11168
:1023C000FF1106120D121712DF708C2F8F7111235F
:1023D00021F00E94EA168D2FF4CE0E940B178D2F4C
:1023E000FECE112341F0053008F0ABCE8C2F8F715B
:1023F0000E943017A6CE063008F0A3CEF7CF8C2F60
:102400008F71112339F00E94EA169BCE8C2F8F71A9
:102410001123C9F30E940B1794CE112329F08C2F9E
:102420008F710E94D5168DCE0E94CB168ACE1123B5
:1024300049F0CF718C2F0E94EA1663E08C2F0E9426
:1024400076187FCE81E00E947F18023008F479CEA2
:1024500082E00E947F1875CE112329F0011159CE18
:102460008C2F8F71D0CF0111CDCE8C2F8F71D2CF09
:102470004C2F4F706D2FC7010E949B030E94F415D3
:1024800060CE4C2F4F706D2FC7010E944F0559CE63
:10249000DF91CF911F910F91FF90EF90DF90BF9050
:1024A000AF909F908F9008950F931F93CF93DF93DA
:1024B000EC01988189812B813C81232B39F08F3F5E
:1024C00019F481E09F3F19F080E001C081E080FDB8
:1024D00017C0CE010E94B403882391F068817981EE
:1024E0008A810E9448188C010E94A5170E946C16D0
:1024F000B801CE01DF91CF911F910F910C94311053
:10250000DF91CF911F910F9108950E943A190E9477
:102510004B190E940D190E9464190E942E1E0E94E0
:10252000811D90E080E00E94FC0D90E080E00C9422
:10253000120E0E9429190C9485120E943E18E92F50
:10254000E295EF70E250EE30E0F4F0E0E655FD4E3B
:102550000C947E26B812B812C112C112C312C11255
:10256000C112C112B812B812C812C112C112C812D7
:10257000803F19F020F4803E20F481E00895843FEC
:10258000E1F380E00895803EC0F3813FD1F7F5CFBD
:1025900093FB882780F90895CF93DF9300D000D074
:1025A0001F92CDB7DEB70F900F900F900F900F9046
:1025B000DF91CF910895CF93DF9300D000D000D06A
:1025C000CDB7DEB726960FB6F894DEBF0FBECDBFEF
:1025D000DF91CF9108951F93CF93DF93C091830133
:1025E00016E0809184018C1304C0DF91CF911F917C
:1025F0000895D0E01C9FF0011D9FF00D1124EB57B2
:10260000FE4F4081518162817381848195810E9456
:10261000DB122196C770E5CF4091B5015091B6010C
:102620006091B7017091B8018091B9019091BA01A0
:102630000C94DB121F93CF93DF938091BA01807FBC
:10264000D1F48091B7018823B1F080918301D091BA
:102650008401B091B501C091B6014091B80150918B
:10266000B901A1E0BF3F09F0A0E0BA016095709503
:1026700016E0D81304C0DF91CF911F91089521E097
:102680004115510521F02A2FCF3F09F020E090E0BD
:1026900020FD38C0189FF001199FF00D1124EB5751
:1026A000FE4F21812C132EC020812B132BC02281A1
:1026B000211128C0238134812417350700F1241B00
:1026C000350B283C3105F0F42091BA012F702061C0
:1026D0002093BA0126E0289FF001299FF00D1124D4
:1026E000E657FE4F80818F708061808385EB91E09B
:1026F0000E945412DF91CF911F910C94EB12260F80
:10270000371FDFCF01968770B4CFAF92BF92CF92C1
:10271000DF92EF92FF920F931F93CF93DF93CDB78A
:10272000DEB761970FB6F894DEBF0FBECDBF8C0148
:1027300085E0F801DE011D9601900D928A95E1F782
:10274000D8014C9111965C9111971296EC903091B2
:10275000B5016091B6018091B8019091B90121E075
:10276000009731F06F3F19F421E03F3F09F020E07E
:10277000B22FB170BB2E20FD80C1F801C380D48080
:10278000A090B701AA2009F427C1C816D906D0F134
:10279000D601A81BB90BCD01FF24F394883C910509
:1027A00008F0F12C8091BA01982F907FFF2009F456
:1027B000CAC0911187C0FE2C651329C0341327C0ED
:1027C000E11025C08F7080618093BA010E940C13C4
:1027D00085EB91E00E9454128091BA01F801858343
:1027E0008F2D61960FB6F894DEBF0FBECDBFDF917F
:1027F000CF911F910F91FF90EF90DF90CF90BF90FE
:10280000AF900895809590958C0D9D1DC5CF81E06A
:10281000CD2831F05F3F19F481E04F3F09F080E0AF
:1028200080FD24C081E08E25F82FF170DF2E80FF1F
:102830003FC0809183012091840136E0821318C04B
:102840004D875E878D859E850E943E18292F229593
:102850002F70223008F1243030F59F7009F1D80133
:1028600015969C91907FE1F4FB2CBACF80E0DCCFF1
:1028700090E0389FF001399FF00D1124EB57FE4F87
:102880006181561306C06081461303C062816E11D8
:102890000FC001968770D2CF9F7011F0882321F36B
:1028A000805E883008F3C8010E945412BD2CDCCF32
:1028B000EE2009F495CF8091BA0181608093BA012E
:1028C000F12C8ECF651312C0341310C0E1100EC06E
:1028D000F8018583C8010E94541286E0F801A5EB37
:1028E000B1E001900D928A95E1F741C04D875E8776
:1028F0008D859E850E949D12882309F4C8C0EE2014
:1029000009F4C5C08091BA01803270F02091B50100
:102910003091B60138872F831986DB86CA868C876B
:10292000CE0107960E94541286E0F801A5EBB1E0B3
:1029300001900D928A95E1F70E941A130E940C13E0
:10294000FF24F3944DCF911115C07C2DD98AC88AEC
:102950006E2D89890E94CC1285EB91E00E94541261
:1029600086E0E5EBF1E0DF011D928A95E9F70E9430
:102970000C1336CF651312C0341310C0E1100EC013
:10298000F8018583C8010E945412E5EBF1E086E06E
:10299000DF011D928A95E9F7FA2C22CF4D875E87D9
:1029A0008D859E850E949D12882309F470C0EE20BB
:1029B00009F46DC08091BA01803208F4B5CF20913E
:1029C000B5013091B6013A8329831B82DD82CC8226
:1029D0008E83CE010196A6CFC816D90638F1F6012E
:1029E000E81BF90BCF01F12C883C910508F03DC0A4
:1029F000FE2CEE2009F44BC0651326C0341324C00E
:102A00008091BA0180FD17C0982F907FA1F0D80166
:102A100015968C931597903F09F45CCF982F907F73
:102A2000905F8F70892B15968C9354CF80959095DD
:102A30008C0D9D1DD8CF86E0F801A5EBB1E001908B
:102A40000D928A95E1F7CCCE4D875E878D859E8568
:102A50000E949D12811168CF8091BA01816080939C
:102A6000BA01C8010E945412BBCE7C2DD98AC88AF3
:102A70006E2D89890E94CC1273CFEE2041F04D87D4
:102A80005E878D859E850E949D1281114DCFC80164
:102A90000E94541255CF1F93CF93DF93CDB7DEB76B
:102AA0002C970FB6F894DEBF0FBECDBF4F8358876B
:102AB00069877A878B879C87CE0107960E9485134A
:102AC000882309F442C09F8188852A853B85232B72
:102AD00039F08F3F19F481E09F3F19F080E001C089
:102AE00081E080FD08C04F81588569857A858B8596
:102AF0009C850E94DB1216E08091830190918401F5
:102B0000891709F467C0819FC00111248B579E4F1C
:102B10000E948513882309F45DC0E09183011E9F04
:102B2000F0011124EB57FE4F408151816281738186
:102B3000848195810E94DB128091830190E001964F
:102B40008770992780938301D7CF86E0FE0137965F
:102B5000DE01119601900D928A95E1F79F8188859B
:102B60002A853B85232B39F08F3F19F481E09F3F65
:102B700019F080E001C081E080FDBDCF209184018B
:102B800030E0C90101968770992740918301481769
:102B9000190699F096E0929FD001939FB00D1124F1
:102BA000AB57BE4FFE01319601900D929A95E1F719
:102BB000809384010E94EB129ECF0E949912109282
:102BC00084011092830186E0E5EBF1E0DF011D92C4
:102BD0008A95E9F72C960FB6F894DEBF0FBECDBFED
:102BE000DF91CF911F910895EF92FF920F931F9362
:102BF000CF93DF938C01892B81F0F12CEE24E394A9
:102C0000E8012196F8018491843770F4843008F04B
:102C10005FC08130B1F08230A1F1DF91CF911F917F
:102C20000F91FF90EF900895853709F44CC008F498
:102C30003DC09CE7980F903780F78F770E94D40FA4
:102C400049C00E5F1F4FFE01849190E2980F9830AB
:102C500060F48770FE2D01C0FF0F8A95EAF78F2F71
:102C60000E943D190E94641902C00E94F80E8F2D27
:102C7000815030F2EFE9FFE03197F1F700C000003A
:102C8000F7CF0E5F1F4FFE01849190E2980F9830AE
:102C900050F48770FE2D01C0FF0F8A95EAF78F2F41
:102CA0000E944319DFCF0E94D40FE1CF0E5F1F4F68
:102CB000FE01C491C150D8F28FE99FE00197F1F76E
:102CC00000C00000F7CF0E5F1F4FFE01F490CFCF82
:102CD0000E94F80E8E01CBCF08956093CE017093C1
:102CE000CF018093D0019093D1010C9485120F9362
:102CF0001F930091CE011091CF012091D00130910E
:102D0000D101DC01CB01802B912BA22BB32B809323
:102D1000CE019093CF01A093D001B093D1011F9128
:102D20000F910C9485120F931F930091CE01109177
:102D3000CF012091D0013091D101DC01CB01802362
:102D40009123A223B3238093CE019093CF01A0932C
:102D5000D001B093D1011F910F910C9485120F9364
:102D60001F930091CE011091CF012091D00130919D
:102D7000D101DC01CB0180279127A227B3278093C3
:102D8000CE019093CF01A093D001B093D1011F91B8
:102D90000F910C9485121092CA011092CB011092DF
:102DA000CC011092CD010C94851241E050E060E01E
:102DB00070E004C0440F551F661F771F8A95D2F735
:102DC0004093CA015093CB016093CC017093CD0125
:102DD0000C94851241E050E060E070E004C0440FC4
:102DE000551F661F771F8A95D2F78091CA0190916F
:102DF000CB01A091CC01B091CD01842B952BA62BBA
:102E0000B72B8093CA019093CB01A093CC01B093D0
:102E1000CD010C94851241E050E060E070E004C008
:102E2000440F551F661F771F8A95D2F7409550951E
:102E3000609570958091CA019091CB01A091CC01D1
:102E4000B091CD0184239523A623B7238093CA0193
:102E50009093CB01A093CC01B093CD010C9485123B
:102E600041E050E060E070E004C0440F551F661F71
:102E7000771F8A95D2F78091CA019091CB01A091DA
:102E8000CC01B091CD0184279527A627B727809341
:102E9000CA019093CB01A093CC01B093CD010C94C7
:102EA00085120F931F930091CA011091CB012091BD
:102EB000CC013091CD01DC01CB01802B912BA22BD9
:102EC000B32B8093CA019093CB01A093CC01B09314
:102ED000CD011F910F910C9485120F931F930091B8
:102EE000CA011091CB012091CC013091CD01DC01C0
:102EF000CB0180239123A223B3238093CA01909313
:102F0000CB01A093CC01B093CD011F910F910C94F4
:102F100085120F931F930091CA011091CB0120914C
:102F2000CC013091CD01DC01CB0180279127A22774
:102F3000B3278093CA019093CB01A093CC01B093A7
:102F4000CD011F910F910C9485120895990F890F4F
:102F5000982F977071E001C0770F9A95EAF78695E0
:102F60008695869525E0829FC001112450E040E0BF
:102F7000A62FB0E0FC01E40FF51FE554FE4F608181
:102F80009D01042E02C0369527950A94E2F7217020
:102F9000219526272723262720834F5F5F4F453023
:102FA000510541F70895990F890F982F97708695CD
:102FB0008695869525E0829FA001112470E060E04F
:102FC00080E0FA01E60FF71FE554FE4F208130E064
:102FD000092E02C0369527950A94E2F7217033270F
:102FE000062E01C0220F0A94EAF7822B6F5F7F4FF3
:102FF0006530710531F70895BF92CF92DF92EF925D
:10300000FF920F931F93CF93DF938C01C090CA015F
:10301000D090CB01E090CC01F090CD018091CE0119
:103020009091CF01A091D001B091D101C82AD92AA5
:10303000EA2AFB2ACFE1D0E0BC2ED701C6010C2E34
:1030400004C0B695A795979587950A94D2F780FD09
:103050000EC0219788F7B12C8B2DDF91CF911F9156
:103060000F91FF90EF90DF90CF90BF900895B8013F
:103070008C2F0E946A05019761F3EECFCF93DF9307
:10308000EC010E94FC17BE01DF91CF910C946A0500
:103090001F93CF93DF93EB0190918201992331F03D
:1030A000CB01DF91CF911F910C943E18882379F0CA
:1030B000CB010E94FC17182F682FCE010E94A61783
:1030C000BE01812FDF91CF911F910C946A05CB0136
:1030D0000E94D317182FF4CF8091D2018595859542
:1030E000859508958091D2018770089598E0899F11
:1030F00090011124622B6093D2010C94EA169091F6
:10310000D201809589238093D201282F277061F402
:10311000282F082E000C330B9217130629F08595E3
:10312000859585950C940B1708959091D201977011
:1031300081E009F480E00895909113019923E1F072
:1031400090913F0297FF18C0E82FE695E695E69527
:10315000EF3139F12091010130910201E20FF32F9B
:10316000F11D877021E030E001C0220F8A95EAF757
:103170008181822B81830895209101013091020188
:10318000F90132969FEF40E05191851751F09F3F32
:1031900019F4511101C0942F4F5F4E31A9F79F3F91
:1031A00009F40895290F311D97FD3A95F90182839D
:1031B0000895909113019923F1F090913F0297FFA8
:1031C0001AC0E82FE695E695E695EF3129F12091B2
:1031D000010130910201E20FF32FF11D282F27701A
:1031E00081E090E001C0880F2A95EAF780959181EF
:1031F0008923818308952091010130910201F90111
:103200003296205E3F4F9191891303C0DF011197E1
:103210001C92E217F307B9F7089581E090E0E0917E
:103220000101F0910201E80FF91F1082019680322E
:103230009105A9F708959091F601892B8093F601E5
:103240000895982F90958091F60189238093F60137
:1032500008951092F60108959091F501892B8093BD
:10326000F5010895982F90958091F5018923809319
:10327000F50108951092F50108959091F401892BBC
:103280008093F4010895982F90958091F4018923FB
:103290008093F40108951092F40108958093D3016E
:1032A00008951092D30108952091010130910201F7
:1032B000F9013196205E3F4F80E0919191118F5F2F
:1032C000E217F307D1F70895E0910101F0910201AF
:1032D0008091F6018083E0910101F09102018081EB
:1032E0009091F501892B8083E0910101F091020119
:1032F00080819091F401892B80839091D30199234F
:1033000061F0E0910101F09102018081892B8083BD
:103310000E94541981111092D30180910101909162
:1033200002010C94E60D6DEE7EEF90E080E00E94CD
:10333000B62660E082E090E00E94982660E083E09C
:1033400090E00E94982660E084E090E00E94982639
:1033500060E085E090E00E94982640E050E0BA01ED
:1033600088E090E00C94AA2690E080E00E949226EB
:1033700021E08D3E9E4F09F020E0822F089582E0EB
:1033800090E00C948426682F82E090E00C949826BC
:1033900083E090E00C948426682F83E090E00C9406
:1033A000982684E090E00C948426682F84E090E0D6
:1033B0000C94982680914502843039F11092F801DE
:1033C00088E190E020E40FB6F894A895809360001F
:1033D0000FBE2093600080E00E944D0583B7817F7F
:1033E000846083BF83B7816083BF7894889583B7F7
:1033F0008E7F83BF0FB6F894A89580916000886196
:1034000080936000109260000FBE089508950895A3
:10341000CF930E94061A0E94E2070E94071AC0E09A
:103420008C2F0E948E08811105C0CF5FC930C1F773
:10343000CF91089581E0FCCF0E9499120E94DA0D8D
:103440000C944D051F920F920FB60F9211248F937B
:103450009F93AF93BF938091F801811113C0809126
:103460003B0290913C02A0913D02B0913E024196F8
:10347000A11DB11D80933B0290933C02A0933D029D
:10348000B0933E02BF91AF919F918F910F900FBE6D
:103490000F901F90189582E084BD93E095BD9AEF40
:1034A00097BD80936E0008952FB7F89480913B02EA
:1034B00090913C02A0913D02B0913E022FBF089531
:1034C000CF92DF92EF92FF920F931F932FB7F89452
:1034D00040913B0250913C0260913D0270913E024E
:1034E0002FBF6A017B01EE24FF248C0130E020E035
:1034F000C016D106E206F30650F0481B590BCA016C
:103500001F910F91FF90EF90DF90CF900895415061
:103510005109F3CF1F920F920FB60F9211248F9380
:103520009F93AF93BF9380913B0290913C02A091F7
:103530003D02B0913E020196A11DB11D80933B0258
:1035400090933C02A0933D02B0933E02BF91AF9195
:103550009F918F910F900FBE0F901F9018950E9412
:103560002A22F8942FEF87EA91E62150804090407C
:10357000E1F700C0000087E090EBDC0180934E0291
:1035800090934F02A0935002B093510288E19CE0C7
:103590000FB6F894A895809360000FBE90936000DA
:1035A000FFCF0F931F93CF93DF93C0E0082F10E05E
:1035B0008C2F0E948E08D82F80FF08C060E07C2FDF
:1035C00080E00E9450050817190799F0D1FD09C045
:1035D000CF5FC93069F780E0DF91CF911F910F91E4
:1035E000089561E07C2F80E00E94500508171907BC
:1035F00079F781E0F1CFCF93C82F8CE20E94D11AE6
:10360000882321F08C2FCF910C94D11A80E0CF9198
:103610000895CF930E94B419811102C00E9493199A
:10362000C5E608C00E94E2078FE39CE90197F1F725
:1036300000C00000C150B1F789E20E94FB1A81115D
:10364000EFC08AE20E94FB1A81110E94931985E063
:103650000E94FB1A81110E94AF1A0E94BF19809329
:10366000F70187E00E94FB1A882371F08BE10E942A
:10367000FB1A882309F4B1C09091F701892F8D7F3F
:1036800091FF82608093F7018091F7010E94C31936
:103690000E94D11990E09093400280933F0280EE07
:1036A0000E94FB1A882341F090913F02892F8E7F60
:1036B00090FF816080933F0289E30E94FB1A882378
:1036C00041F090913F02892F8D7F91FF826080931E
:1036D0003F0282EE0E94FB1A882341F090913F0244
:1036E000892F8B7F92FF846080933F0286EE0E9439
:1036F000FB1A882341F090913F02892F877F93FF27
:10370000886080933F0283EE0E94FB1A882341F079
:1037100090913F02892F8F7E94FF806180933F02BA
:1037200085E30E94FB1A882341F090913F02892F84
:103730008F7D95FF806280933F0281E30E94FB1A98
:10374000882341F090913F02892F8F7B96FF806400
:1037500080933F0281E10E94FB1A882341F09091FF
:103760003F02892F97FB87F9805880933F02809111
:103770003F020E94D51987E20E94FB1AC82F8EE1F2
:103780000E94FB1A8111C2608FE10E94FB1A811115
:10379000C46080E20E94FB1A8111C86081E20E942D
:1037A000FB1A8111C06182E20E94FB1A8111C06282
:1037B00083E20E94FB1A8111C06484E20E94FB1A1A
:1037C000882341F1C0688C2F0E94CC196C2F70E0C7
:1037D00090E080E0CF910C946D168EE00E94FB1A71
:1037E000882339F09091F701892F8B7F92FF8460B5
:1037F00049CF80E10E94FB1A9091F701882329F0BC
:10380000892F877F93FF88603DCF892F8E7F90FF20
:10381000816038CFC111D7CF0E94C819682FD7CF88
:10382000CF9108958091FB0180FF12C06091060145
:1038300085E0689FB001112475956795759567952A
:1038400060387105A8F561157105A1F1862F0895FD
:1038500081FF09C06091060185E0689FB0011124D5
:1038600075956795EDCF82FF07C06091060185E0F1
:10387000689FB0011124E4CF2091FC012223A9F01C
:10388000909105016091060185E0689FB0011124C7
:103890002917B0F6269FA001279F500D1124692FEC
:1038A00070E0CA010E946A26CBCF65E070E0CECFFF
:1038B0008FE7089581E008958091FB0180FF0CC09F
:1038C0006091040170E07595679575956795611530
:1038D000710549F1862F089581FF06C060910401AA
:1038E00070E075956795F3CF6091040182FD0BC080
:1038F0009091FC019923A1F0609103018091040152
:10390000961738F0682F70E06038710500F38FE784
:103910000895899FC001112470E00E946A26F4CFA7
:1039200061E070E0D7CF81E00895803F31F40E94DC
:10393000121C81958093FF010895813F19F40E9424
:10394000121CF8CF823F31F40E94121C81958093A3
:10395000FE010895833F19F40E94121CF8CF893F9D
:1039600029F40E945C1C8093000208958A3F21F490
:103970000E945C1C8195F7CF8B3F31F40E945C1C48
:1039800081958093010208958C3F19F40E945C1C7C
:10399000F8CF843F31F48091FD0181608093FD0177
:1039A0000895853F21F48091FD018260F7CF863F25
:1039B00021F48091FD018460F1CF873F21F4809153
:1039C000FD018860EBCF883F21F48091FD0180618B
:1039D000E5CF8D3F31F48091FB0181608093FB0145
:1039E00008958E3F21F48091FB018260F7CF8F3FD5
:1039F000B9F78091FB018460F1CF803FC1F48091E1
:103A0000FF0187FD1092FF018091FE0181110EC020
:103A10008091FF0181110AC080910002811106C0CE
:103A200080910102811102C01092FC010895813F32
:103A300029F48091FF0118162CF3E6CF9091FE0136
:103A4000823F29F497FFE0CF1092FE01DDCF833F44
:103A500019F41916CCF3D8CF893F39F480910002BC
:103A6000181694F610920002CFCF8A3F29F4809165
:103A7000000287FFC9CFF6CF8B3F39F48091010256
:103A800087FFC2CF10920102BFCF8C3F29F48091F3
:103A900001021816BCF3B8CF843F31F48091FD01C8
:103AA0008E7F8093FD01B0CF853F21F48091FD0191
:103AB0008D7FF7CF863F21F48091FD018B7FF1CF81
:103AC000873F21F48091FD01877FEBCF883F21F470
:103AD0008091FD018F7EE5CF8D3F31F48091FB0118
:103AE0008E7F8093FB0190CF8E3F21F48091FB016C
:103AF0008D7FF7CF8F3F09F087CF8091FB018B7FC0
:103B0000F0CF8DEF91E00E94F10D0E94541A909336
:103B1000FA018093F90108951F93CF93DF93809169
:103B2000F9019091FA010E94601AAC019091FC0198
:103B30002091070130E0911106C0209108018AE030
:103B4000289F900111244217530780F08091FE01B5
:103B5000C091FF0110910002D091010281110AC0B1
:103B6000C11178C0111176C0D11174C0DF91CF910D
:103B70001F9108959F3F19F09F5F9093FC011816C5
:103B800024F40E94121C8093FE018091FE0187FFA5
:103B900005C00E94121C81958093FE011C1624F41E
:103BA0000E94121C8093FF018091FF0187FF05C0D6
:103BB0000E94121C81958093FF016091FE01662393
:103BC00031F1C091FF01CC2311F1062E000C770BCF
:103BD000880B990B0E945D2523E333E343E35FE306
:103BE0000E94C1250E9425256093FE016C2FCC0FF9
:103BF000770B880B990B0E945D2523E333E343E3A6
:103C00005FE30E94C1250E9425256093FF011116E4
:103C100024F40E945C1C809300028091000287FFC4
:103C200005C00E945C1C8195809300021D1624F43F
:103C30000E945C1C809301028091010287FF05C0F5
:103C40000E945C1C819580930102DF91CF911F91AE
:103C50000C94811D9F3F09F08FCFA0CF85E0EDEF41
:103C6000F1E0DF011D928A95E9F71092FC011092B4
:103C7000FB010895809122020895CF93DF9300D035
:103C80001F92CDB7DEB79C0180914502843019F5B3
:103C900093E099833B832A839093E9008FEF90917F
:103CA000E800815095FD06C095ED9A95F1F700006A
:103CB0008111F5CF8091E80085FF0DC050E040E014
:103CC00063E070E0CE0101960E949A208091E800A6
:103CD0008E778093E8000F900F900F90DF91CF9137
:103CE0000895CF93DF9300D01F92CDB7DEB7209118
:103CF0004502243031F522E02983805891099B83C5
:103D00008A8383E08093E9008FEF9091E8008150EF
:103D100095FD06C095ED9A95F1F700008111F5CF5C
:103D20008091E80085FF0DC050E040E063E070E066
:103D3000CE0101960E949A208091E8008E778093B0
:103D4000E8000F900F900F90DF91CF9108959C01A4
:103D5000809145028430F9F482E08093E9009FEF7E
:103D60008091E800915085FD06C085ED8A95F1F7B8
:103D700000009111F5CF8091E80085FF0CC050E064
:103D800040E065E070E0C9010E949A208091E8005F
:103D90008E778093E8000895CF93DF93EC018091B4
:103DA00045028430F1F4909113019923E9F0909148
:103DB0003F0297FF19C08093E9008FEF9091E800D0
:103DC000815095FD06C095E19A95F1F700008111AB
:103DD000F5CF8091E80050E040E060E270E085FDC2
:103DE0001AC0DF91CF91089581E08093E9008FEFB1
:103DF0009091E800815095FD06C095ED9A95F1F7F8
:103E000000008111F5CF8091E80085FFEACF50E0F6
:103E100040E068E070E0CE010E949A208091E800C6
:103E20008E778093E80080E2FE01A2E0B2E001908C
:103E30000D928A95E1F7D5CF80914402811109C096
:103E40000E942A220E9487228091E200846080934F
:103E5000E2000895109244020895089508950C9484
:103E60001C1A42E061EC81E00E94A82142E061EC72
:103E700082E00E94A82142E061EC83E00E94A82138
:103E800042E261EC84E00C94A821809147028330E7
:103E900009F455C030F4813071F1823009F491C0D9
:103EA00008958A3009F47DC08B3009F463C08930ED
:103EB00009F044C080914602813209F03FC08091F0
:103EC0004A0290914B02009711F00397B9F5809147
:103ED000E800877F8093E8008091E80082FF2AC095
:103EE0008091F100809322028091E8008B7780938B
:103EF000E8000C94DC2180914602813AF9F480912B
:103F0000E800877F8093E80080914A0290914B02FD
:103F1000892B61F460E282E092E070E00E94E92087
:103F20008091E8008B778093E800089560E090E04E
:103F300080E0F3CF809145028111CECF089580912A
:103F40004602813AD9F780914A0290914B02892B1F
:103F5000A9F78091E800877F8093E8008091E800CE
:103F600080FFFCCF809113018093F1008091E800E5
:103F70008E77BDCF80914602813201F780914A024F
:103F800090914B02892BD1F68091E800877F809336
:103F9000E8000E94DC2180914802809313010C9478
:103FA000991280914602813249F68091E800877F1C
:103FB0008093E8000E94DC218091490280932302D3
:103FC000089580914602813A09F0B8CF8091E800C7
:103FD000877F8093E8008091E80080FFFCCF80918C
:103FE0002302C2CF84B7877F84BF0FB6F894A89509
:103FF00080916000886180936000109260000FBE25
:1040000080E880936100109261000E94290E0E9456
:104010002A220E9487228091E20084608093E2003D
:1040200078940E9409250E942B0E89E091E00E945D
:10403000D50D80914502853029F00E94330E0E94F3
:10404000A20DF7CF0E94DA1980914302882389F3E9
:104050000E94081A882369F30E948420EACF292F3E
:1040600033272330310579F158F421303105F1F04F
:104070002230310519F190E080E030E020E01AC0F4
:104080002132310599F122323105A9F7643098F7D0
:1040900070E0FB01EE0FFF1FED5DFE4F20813181CF
:1040A000615E7E4FFB01808190E004C082E190E080
:1040B00026E935E0FA013183208308958DE690E00A
:1040C00029E235E0F7CF99278130910561F028F09A
:1040D000029789F6E9EFF4E002C0E5E2F5E08491A9
:1040E00090E09F01E7CFEDE0F5E0F9CF643008F014
:1040F000C2CFE62FF0E0EE0FFF1FE55DFE4F2081FF
:10410000318189E090E0D6CF80E189BD82E189BD2F
:1041100009B400FEFDCF8091D8008F7D8093D80038
:104120008091E00082608093E0008091E00081FD5A
:10413000FCCF0895AF92BF92CF92DF92FF920F9380
:104140001F93CF93DF936C01EB018A010E94FB2147
:10415000F82E811123C00115110539F0F801808175
:104160009181C81BD90BC80ED91EB12CA12C209748
:10417000A9F08091E80085FD22C08091E8008E774B
:104180008093E80001151105A1F0F801808191816B
:10419000A80EB91EB182A08285E0F82E8F2DDF9186
:1041A000CF911F910F91FF90DF90CF90BF90AF9074
:1041B00008950E94FB218823D1F2F82EEFCFF6015B
:1041C00081916F018093F1002197FFEFAF1ABF0A31
:1041D000CECFFC0180914C0290914D02861797073B
:1041E000A0F06115710529F49091E8009E779093F5
:1041F000E80090E06115710551F4911108C08091BB
:10420000E80082FF35C080E00895BC01F2CF8091C4
:1042100045028823C9F18530C9F18091E80083FD0A
:1042200031C08091E80082FDEACF8091E80080FFF4
:10423000E1CF2091F3008091F200322F282F6115F9
:10424000710519F02830310558F091E0283031051A
:1042500009F090E02091E8002E772093E800CACF83
:1042600081918093F100615071092F5F3F4FE7CF3B
:1042700080914502882341F0853041F08091E8002B
:1042800083FFBDCF81E0089582E0089583E0089523
:10429000FC0180914C0290914D0286179707A0F087
:1042A0006115710529F48091E8008E778093E8000C
:1042B00090E06115710551F4911108C08091E800FA
:1042C00082FF36C080E00895BC01F2CF80914502A4
:1042D0008823D1F18530D1F18091E80083FD32C08F
:1042E0008091E80082FDEACF8091E80080FFE1CF75
:1042F0002091F3008091F200322F282F6115710573
:1043000019F02830310558F091E02830310509F0D6
:1043100090E08091E8008E778093E800CACF849186
:104320008093F1003196615071092F5F3F4FE6CFC6
:1043300080914502882341F0853041F08091E8006A
:1043400083FFBCCF81E0089582E0089583E0089563
:10435000982F973028F08F708093E90081E00895BE
:104360009093E900242F762F50E0981731F0709148
:10437000EC002091ED005091F00021FD02C09F5F04
:10438000E8CF3091EB003E7F3093EB003091ED00B1
:104390003D7F3093ED003091EB0031603093EB00C6
:1043A0007093EC002093ED005093F0002091EE000C
:1043B00027FDE5CF80E008958091460287FF13C076
:1043C0008091E80082FF06C08091E8008B7780939F
:1043D000E80004C0809145028111F2CF08958091D8
:1043E00045028823D9F38091E80080FFF8CF8091BF
:1043F000E8008E77ECCF2091E4003091E50085E66F
:104400009091EC0090FF06C09091E80090FF06C0EC
:1044100080E008959091E80092FDFACF90914502D6
:10442000992391F0953091F09091EB0095FD10C09B
:104430004091E4005091E5002417350709F38150BD
:104440009A01F1F684E0089582E0089583E00895EA
:1044500081E008950E9498220E94A022E0EEF0E000
:10446000808181608083E8EDF0E080818F778083B8
:1044700019BCA7EDB0E08C918E7F8C9380818F7EEC
:1044800080831092440208950F931F93CF93DF937C
:104490000E9498220E94A022C8EDD0E088818F77E8
:1044A000888388818068888388818F7D888319BC10
:1044B0001092450210924102109243021092420261
:1044C00000EE10E0F80180818B7F8083888181601D
:1044D000888342E060E080E00E94A821E1EEF0E005
:1044E00080818E7F8083E2EEF0E080818160808336
:1044F000808188608083F80180818E7F80838881BD
:1045000080618883DF91CF911F910F910895E8ED2D
:10451000F0E080818F7E8083E7EDF0E08081816034
:10452000808384E082BF81E0809344020C94442223
:10453000E8EDF0E080818E7F80831092E2000895A4
:104540001092DA001092E10008951F920F920FB6B8
:104550000F9211242F933F934F935F936F937F9309
:104560008F939F93AF93BF93EF93FF938091E1005D
:1045700082FF0BC08091E20082FF07C08091E100C2
:104580008B7F8093E1000E9408258091DA0080FFF4
:1045900019C08091D80080FF15C08091DA008E7F0D
:1045A0008093DA008091D90080FF94C080E189BDBA
:1045B00082E189BD09B400FEFDCF81E08093450210
:1045C0000E941C1F8091E10080FF19C08091E200D1
:1045D00080FF15C08091E2008E7F8093E200809181
:1045E000E20080618093E2008091D8008062809335
:1045F000D80019BC85E0809345020E942E1F80914F
:10460000E10084FF29C08091E20084FF25C080E1A1
:1046100089BD82E189BD09B400FEFDCF8091D8003B
:104620008F7D8093D8008091E1008F7E8093E100A0
:104630008091E2008F7E8093E2008091E2008160B1
:104640008093E20080914102882309F449C084E00C
:10465000809345020E942F1F8091E10083FF29C0B3
:104660008091E20083FF25C08091E100877F8093E5
:10467000E10082E080934502109241028091E100C6
:104680008E7F8093E1008091E2008E7F8093E20034
:104690008091E20080618093E20042E060E080E08F
:1046A0000E94A8218091F00088608093F0000E9411
:1046B0002D1FFF91EF91BF91AF919F918F917F91AE
:1046C0006F915F914F913F912F910F900FBE0F907F
:1046D0001F90189519BC109245020E942A1F72CF94
:1046E0008091E30087FD02C081E0B2CF83E0B0CFCC
:1046F0001F920F920FB60F9211242F933F934F9357
:104700005F936F937F938F939F93AF93BF93CF9359
:10471000EF93FF93C091E900CF708091EC0010926D
:10472000E9008091F000877F8093F00078940E94E8
:10473000B4231092E9008091F00088608093F0002B
:10474000C093E900FF91EF91CF91BF91AF919F91FD
:104750008F917F916F915F914F913F912F910F902A
:104760000FBE0F901F9018951F93CF93DF93CDB777
:10477000DEB7AA970FB6F894DEBF0FBECDBFE6E452
:10478000F2E08091F100819322E0EE34F207C9F764
:104790000E94451F8091E80083FF42C0809146023D
:1047A000909147029A3008F03BC0E92FF0E0E552C3
:1047B000FC4D0C947E26E5230924102409241024A2
:1047C000642486241024DB24E824803879F082389D
:1047D00039F580914A028F708093E9008091EB0057
:1047E00085FB882780F91092E90006C0809142027B
:1047F00090914302911182609091E800977F90938D
:10480000E8008093F1001092F1008091E8008E772B
:104810002DC0282F2D7F21F48823D1F0823059F12B
:104820008091E80083FF0AC08091E800877F809331
:10483000E8008091EB0080628093EB00AA960FB6AF
:10484000F894DEBF0FBECDBFDF91CF911F910895C9
:1048500080914802813021F7933009F080E0809305
:1048600043021092E9008091E800877F8093E8007E
:104870000E94DC21D5CF809148028111F2CF809136
:104880004A028F7069F28093E9002091EB0020FFCB
:10489000E8CF933031F48091EB0080628093EB009D
:1048A000E0CF9091EB0090619093EB0021E030E03D
:1048B00001C0220F8A95EAF72093EA001092EA00DD
:1048C0008091EB008860EACF8111AACF1091480255
:1048D0001F778091E3008078812B8093E3008091A3
:1048E000E800877F8093E8000E94DC218091E80047
:1048F00080FFFCCF8091E30080688093E30083E039
:10490000111101C082E0809345028ACF8058823025
:1049100008F086CF80914802909149028C3D23E0B7
:104920009207A1F583E08A838AE289834FB7F894DE
:10493000DE01139620E03EE051E2E32FF0E05093D9
:104940005700E49120FF03C0E295EF703F5FEF70E6
:104950008E2F90E0EA30C0F0C7968D939D932F5F25
:10496000243159F74FBF8091E800877F8093E8009A
:104970006AE270E0CE0101960E94E9208091E80091
:104980008B778093E8004CCFC096E7CFAE014F5FA6
:104990005F4F60914A020E942F20BC01892B09F4CD
:1049A0003FCF9091E800977F9093E80089819A81AA
:1049B0000E944821E3CF803809F032CF8091E8008F
:1049C000877F8093E800809141028093F1001DCFA2
:1049D000811126CF90914802923008F021CF80912A
:1049E000E800877F8093E800909341020E94DC21D9
:1049F00080914102882331F084E0809345020E9437
:104A0000311F0ECF8091E30087FDF6CF81E0F5CF17
:104A10000895CF9380914502882399F0C091E900D1
:104A2000CF708091EC0080FD0EC080E0C82B10920A
:104A3000E9008091E80083FD0E94B423CF70C09309
:104A4000E900CF91089580E8F1CF0E942C25689469
:104A5000B1110C94BB2508950E94A02588F09F57A2
:104A600098F0B92F9927B751B0F0E1F0660F771F92
:104A7000881F991F1AF0BA95C9F714C0B13091F088
:104A80000E94BA25B1E008950C94BA25672F782FBB
:104A90008827B85F39F0B93FCCF38695779567954D
:104AA000B395D9F73EF490958095709561957F4FB9
:104AB0008F4F9F4F0895E89409C097FB3EF490955F
:104AC0008095709561957F4F8F4F9F4F9923A9F0E7
:104AD000F92F96E9BB279395F69587957795679576
:104AE000B795F111F8CFFAF4BB0F11F460FF1BC0BA
:104AF0006F5F7F4F8F4F9F4F16C0882311F096E94D
:104B000011C0772321F09EE8872F762F05C06623FA
:104B100071F096E8862F70E060E02AF09A95660FB3
:104B2000771F881FDAF7880F9695879597F908956C
:104B300057FD9058440F551F59F05F3F71F047954E
:104B4000880F97FB991F61F09F3F79F08795089533
:104B5000121613061406551FF2CF4695F1DF08C052
:104B6000161617061806991FF1CF8695710561056F
:104B700008940895E894BB2766277727CB0197F917
:104B800008950E94D4250C9445260E94372638F0BB
:104B90000E943E2620F0952311F00C942E260C94B2
:104BA000342611240C94BB250E94982570F3959F00
:104BB000C1F3950F50E0551F629FF001729FBB2714
:104BC000F00DB11D639FAA27F00DB11DAA1F649FB0
:104BD0006627B00DA11D661F829F2227B00DA11D63
:104BE000621F739FB00DA11D621F839FA00D611DE9
:104BF000221F749F3327A00D611D231F849F600D0A
:104C0000211D822F762F6A2F11249F5750409AF032
:104C1000F1F088234AF0EE0FFF1FBB1F661F771FBE
:104C2000881F91505040A9F79E3F510580F00C9489
:104C30002E260C94BB255F3FE4F3983ED4F3869573
:104C400077956795B795F795E7959F5FC1F7FE2B29
:104C5000880F911D9695879597F9089597F99F6705
:104C600080E870E060E008959FEF80EC08950024F4
:104C70000A941616170618060906089500240A94C1
:104C800012161306140605060895092E0394000C47
:104C900011F4882352F0BB0F40F4BF2B11F460FFD6
:104CA00004C06F5F7F4F8F4F9F4F0895AA1BBB1BA0
:104CB00051E107C0AA1FBB1FA617B70710F0A61B1C
:104CC000B70B881F991F5A95A9F780959095BC013D
:104CD000CD01089597FB072E16F4009407D077FDB9
:104CE00009D00E94562607FC05D03EF49095819588
:104CF0009F4F0895709561957F4F0895EE0FFF1FA8
:104D00000590F491E02D0994F999FECF92BD81BDF3
:104D1000F89A992780B50895A6E1B0E044E050E004
:104D20000C94BE26A8E1B0E042E050E00C94BE2610
:104D3000262FF999FECF92BD81BDF89A019700B454
:104D4000021639F01FBA20BD0FB6F894FA9AF99AF4
:104D50000FBE08950396272F0E9499260E94982639
:104D6000252F0E949926242F0C9499260196272FEF
:104D70000E9499260C949826DC01CB01FC01F9993C
:104D8000FECF06C0F2BDE1BDF89A319600B40D9297
:0C4D900041505040B8F70895F894FFCF50
:104D9C00FFD4012808140A321E3A1ECC1EA71E711D
:104DAC001E3D1E01339391906697C63431F7F64041
:104DBC004D363964061706E105A8053B0554056D0B
:044DCC000586050053
:00000001FF
