:100000000C942C040C9473040C9473040C947304DB
:100010000C9473040C9473040C9473040C94730484
:100020000C9473040C9473040C94A71E0C947A1F04
:100030000C94BC150C9473040C9473040C9473040A
:100040000C9473040C9473040C9473040C94730454
:100050000C9473040C941D160C9473040C94730488
:100060000C9473040C9473040C9473040C94730434
:100070000C9473040C9473040C9473040C94730424
:100080000C9473040C9473040C9473040C94730414
:100090000C9473040C9473040C9473040C94730404
:1000A0000C9473040C9473040C94730429001A00C8
:1000B00015001C000C0013001400080017001800A5
:1000C00012004C002B00160009000B000E0033003C
:1000D000040007000A000D000F003400E1001B00BF
:1000E00019001100360052001D0006000500100026
:1000F0003700E500E400E200015100003800510043
:10010000E30068002C00025150004F0035026900E6
:100110006B00350025002D0068006A0047002400B0
:1001200026002E0039006D006F000100220026021B
:100130006C006E00460021002300270201007100C0
:10014000730001001F0001007000720048001E00D3
:100150002000010001000100010000000100010079
:100160000100010028002700370000703A003C0021
:100170003E004000420044003B003D003F00410083
:100180004300450001006D006F00010001002F00D9
:100190006C006E00010001000100300001007100E0
:1001A0007300010001004B007000720001000100AB
:1001B00001000100010001000100000031004E00BB
:1001C000A60001002A0001004A004D0001000100C4
:1001D0000100010001000100010001000100010017
:1001E0000100010001000100010001000100010007
:1001F00001000100010001000100010001000100F7
:1002000001000100010001000100010001000100E6
:1002100001000100010001000100000001000100D7
:1002200001000100010001000100010001000100C6
:1002300001000100010001000100010001000100B6
:1002400001000100010001000100010001000100A6
:100250000100010001000100010001000100010096
:100260000100010001000100010001000100010086
:100270000100010001000100010000000100010077
:100280000100010001000100010001000100010066
:100290000100010001000100010001000100010056
:1002A0000100010001000100010001000100010046
:1002B0000100010001000100010001000100010036
:1002C0000100010001000100010001000100010026
:1002D0000100010001000100010000000100010017
:1002E0000100010001000100010001000100010006
:1002F00001000100010001000100010001000100F6
:1003000001000100010001000100010001000100E5
:1003100001000100010001000100010001000100D5
:1003200001000100010001000100010001000100C5
:1003300001000100010001000100000001000100B6
:1003400001000100010001000100010001000100A5
:100350000100010001000100010001000100010095
:100360000100010001000100010001000100010085
:100370000100010001000100010001000100010075
:100380000100010001000100010001000100010065
:100390000100010001000100010000000100010056
:1003A0000100010001000100010001000100010045
:1003B0000100010001000100010001000100010035
:1003C0000100010001000100010001000100010025
:1003D0000100010001000100010001000100010015
:1003E0000100010001000100010001000100010005
:1003F00001000100010001000100000001000100F6
:1004000001000100010001000100010001000100E4
:1004100001000100010001000100010001000100D4
:1004200001000100010001000100010001000100C4
:1004300001000100010001000100010001000100B4
:1004400001000100010001000100010001000100A4
:100450000100010001000100010000000100010095
:100460000100010001000100010001000100010084
:100470000100010001000100010001000100010074
:100480000100010001000100010001000100010064
:100490000100010001000100010001000100010054
:1004A0000100010001000100010001000100010044
:1004B0000100010001000100010000000100010035
:1004C0000100010001000100010001000100010024
:1004D0000100010001000100010001000100010014
:1004E0000100010001000100010001000100010004
:1004F00001000100010001000100010001000100F4
:1005000001000100010001000100010001000100E3
:1005100001000100010001000100000001000100D4
:1005200001000100010001000100010001000100C3
:1005300001000100010001000100010001000100B3
:1005400001000100010001000100010001000100A3
:100550000100010001000100010001000100010093
:100560000100010001000100010001000100010083
:100570000100010001000100010000000100010074
:100580000100010001000100010001000100010063
:100590000100010001000100010001000100010053
:1005A0000100010001000100010001000100010043
:1005B0000100010001000100010001000100010033
:1005C0000100010001000100010001000100010023
:1005D0000100010001000100010000000100010014
:1005E0000100010001000100010001000100010003
:1005F00001000100010001000100010001000100F3
:1006000001000100010001000100010001000100E2
:1006100001000100010001000100010001000100D2
:1006200001000100010001000100010001000100C2
:1006300001000100010001000100000001000100B3
:1006400001000100010001000100010001000100A2
:100650000100010001000100010001000100010092
:100660000100010001000100010001000100010082
:100670000100010001000100010001000100010072
:100680000100010001000100010001000100010062
:100690000100010001000100010000000100010053
:1006A00001000100010001000100010012036B00C4
:1006B0006500790062006F00610072006400000054
:1006C000160371006D006B006200750069006C001C
:1006D00064006500720000000403090409026D0053
:1006E000040100A0FA09040000010301010009212E
:1006F000110100012240000705810308000A0904D6
:1007000001000103010200092111010001224D0035
:100710000705820308000A09040200010300000023
:100720000921110100012236000705830308000A90
:100730000904030001030000000921110100012246
:100740003900070584032000011201100100000098
:1007500008EDFE606001000102000105010906A12B
:1007600001050719E029E7150025019508750181A4
:100770000205081901290595057501910295017574
:100780000391010507190029F71500250195F87552
:10079000018102C005010980A10185021601002620
:1007A00003001A81002A8300751095018100C0059D
:1007B0000C0901A1018503160100269C021A010003
:1007C0002A9C02751095018100C005010902A10152
:1007D0000901A10005091901290515002501950543
:1007E0007501810295017503810105010930093107
:1007F0001581257F95027508810609381581257FA9
:10080000950175088106050C0A38021581257F952A
:100810000175088106C0C005010906A10105071977
:10082000E029E715002501950875018102950175FC
:1008300008810105081901290595057501910295A1
:1008400001750391010507190029FF150026FF0016
:10085000950675088100C00011241FBECFEFDAE0B5
:10086000DEBFCDBF04B603FE27C080912E0290915B
:100870002F02A0913002B09131028730904BA740F7
:10088000B04BD1F410922E0210922F02109230022F
:100890001092310214BE84B7877F84BF0FB6F894DC
:1008A000A89580916000886180936000109260003C
:1008B0000FBEE0E0F8E3099511E0A0E0B1E0EEEC56
:1008C000F5E402C005900D92A633B107D9F722E0F6
:1008D000A6E3B1E001C01D92AE32B207E1F70E947B
:1008E000FD1B0C94B9220C94000090E080E0089568
:1008F0000895089581E00895089581E008950C9485
:100900007A040E940C0E2FEF84E39CE0215080407B
:100910009040E1F700C000000C944016EF92FF9267
:100920000F931F93CF93DF938C01FC01E080F18044
:1009300080916A01811140C082818823C1F1C70181
:100940000E949313C82F682FC7010E943A13B70162
:100950008C2F0E94C605EC01B8010E947F048823F9
:1009600009F44BC0B801CE010E94CF07882309F4D7
:1009700044C0C531F0E7DF0720F5C23080E7D80773
:1009800008F04DC0C115E0E7DE0791F1C130D04756
:10099000E1F181E08093380180933901C801DF9152
:1009A000CF911F910F91FF90EF900C947D04C701A0
:1009B0000E946913C82FCBCFC7010E949313B701C0
:1009C000C8CFCC3380E7D80709F49BC0CD33D047DC
:1009D00001F7F8018281882309F4BAC01092390125
:1009E0000E94EC15909337018093360180E296C007
:1009F000F801828181110E94810480E0DF91CF9112
:100A00001F910F91FF90EF900895F8018281882344
:100A1000A1F38091EE0181608093EE01EECFF801A9
:100A20008281882309F4BACF0E944E15811102C039
:100A30000E9434150E946B1590E0909320028093E1
:100A40001F02FE01E350F04780911F028160E231F6
:100A5000F10538F4E554FD4D0C94692280911F0294
:100A6000826080931F0280911F020E946F150E9476
:100A70000C0EC3CF80911F028460F3CF80911F02C0
:100A80008860EFCF80911F028061EBCF80911F02C1
:100A90008062E7CF80911F028064E3CF80911F02C4
:100AA0008068DFCF80911F028C60DBCF80911F02B6
:100AB0008E7FD7CF80911F028D7FD3CF80911F0271
:100AC0008B7FCFCF80911F02877FCBCF80911F027A
:100AD0008F7EC7CF80911F028F7DC3CF80911F0271
:100AE0008F7BBFCF80911F028F77BBCF80911F027A
:100AF000837FB7CF90911F02892F97FB87F980588A
:100B0000B0CFF8018281882361F0109238010E94F1
:100B1000EC15909337018093360182E00E94710BAF
:100B20006CCF8091380181110FC080913601909176
:100B300037010E94F815883C910530F486E20E9446
:100B4000460A86E20E94220B82E00E94780B55CF73
:100B50008091390181110FC0809136019091370148
:100B60000E94F815883C910530F487E20E94460AFD
:100B700087E20E94220B80E2E8CF0C941E080C94BE
:100B800020080C947C040C94C1050895972F70E004
:100B900026E0929F600D711D1124FB0190E3899F57
:100BA000E00DF11D1124EE0FFF1FE455FF4F85915D
:100BB00094910895FC01EE0FFF1FE455F94F8591C4
:100BC000949108950E94C6050E9453079C018115C7
:100BD00040E4940708F097C0211580E3380708F037
:100BE000FAC0203E310508F074C0203C310508F001
:100BF000E5C0283A310588F4253A310508F0E2C00D
:100C00002130310509F477C0C9010497813A910573
:100C100008F471C030E020E06EC0C901885A910923
:100C20004597C0F7283A310509F4FEC0293A310545
:100C300009F4FDC02A3A310509F4FCC02B3A31050C
:100C400009F4FBC02C3A310509F4FAC02B3B3105FD
:100C500009F4F9C02C3B310509F4F8C02D3A3105EF
:100C600009F4F7C0203B310509F4F6C02E3A3105EE
:100C700009F4F5C02F3A310509F4F4C0213B3105E0
:100C800009F4F3C0223B310509F4F2C0233B3105DE
:100C900009F4F1C0243B310509F4F0C0253B3105CE
:100CA00009F4EFC0263B310509F4EEC0273B3105BE
:100CB00009F4EDC0283B310509F4ECC0293B3105AE
:100CC00009F4EBC02A3B310509F4EAC020E034E422
:100CD00012C0211590E2390780F42F3F310509F049
:100CE00050F4283E310538F0C901805F9109306524
:100CF000409708F08FCFC9010895C9019F700E94E5
:100D0000DA059C01F8CF8115944508F041C0211502
:100D100083E5380708F06AC0211592E5390738F5F0
:100D2000211541E5340708F05CC0211580E538073E
:100D300008F454C0C90134E0969587953A95E1F7D7
:100D40008370422F46954695437090E2499FA001DB
:100D50001124582B822F837021E030E002C0220F33
:100D6000331F8A95E2F7242B352B3C68C4CFC90189
:100D70008370992741E050E002C0440F551F8A95C7
:100D8000E2F72695269580E2289F90011124EBCF6B
:100D9000211596E5390748F4922F88272115354506
:100DA000C8F59C01246F306AA6CFC90190563F70E8
:100DB0008115904108F02ECF30629DCFC901805C33
:100DC00091099DCF253A310549F1263A310549F57A
:100DD00022E830E490CF3327306C8DCF3F70306AFB
:100DE0008ACF322F2227216F306A85CFC9018370C5
:100DF000992741E050E002C0440F551F8A95E2F761
:100E00002695269580E2289F90011124242B352BCE
:100E10003A6871CF88279F719C01CECF21E830E4DA
:100E20006ACF23E830E467CF22EE34E464CF29EEC2
:100E300034E461CF2AEE34E45ECF25EB34E45BCFBB
:100E400026EB34E458CF23EB34E455CF24EB34E4E1
:100E500052CF27EB34E44FCF2CEC34E44CCF2DECC5
:100E600034E449CF23E835E446CF2AE835E443CFDC
:100E700022E935E440CF24E935E43DCF21E236E4F0
:100E80003ACF23E236E437CF24E236E434CF25E20A
:100E900036E431CF26E236E42ECF27E236E42BCFFC
:100EA0002AE236E428CF803E910581F1C8F48133EF
:100EB000910509F462C048F48932910509F456C0DD
:100EC0008A32910509F460C0089589339105B9F01B
:100ED00082389105A1F08533910509F440C0089549
:100EE000863E910561F138F4823E9105B1F0833E72
:100EF0009105E1F00895873E910551F10895209103
:100F00001F022370D9F080EE90E0089520911F0217
:100F100020FF14C089E390E0089520911F0222FF72
:100F20000DC024FD09C083EE90E0089520911F02BA
:100F300022FD31C024FF02C090E080E0089520919E
:100F40001F0223FFFBCF24FDF7CF87EE90E008952B
:100F500020911F0223FFEECF86EE90E008952091AE
:100F60001F0225FFEBCF89E290E0089520911F0238
:100F700025FFE4CF85E390E0089520911F0226FF2E
:100F8000DDCF8AE290E0089520911F0226FFD6CFA0
:100F900081E390E0089582EE90E0089508950F9324
:100FA0001F93CF938C01FB018281811106C0C1E0A8
:100FB0008C2FCF911F910F910895C0914701C111BE
:100FC00025C00531104799F70E94CE0781E0809334
:100FD00047010E94EC1590934601809345011092C1
:100FE0003A0110923C0110923B0110923E01109286
:100FF0003D011092400110923F0110924201109267
:1010000041011092440110924301D2CF80914501D9
:10101000909146010E94F815883C910540F6809118
:101020003A01E82FF0E0EE0FFF1FE55CFE4F118361
:1010300000838F5F80933A01C0E0BACF0C947804AC
:101040000C94790485B7806885BF85B7806885BFB3
:10105000A3E1B1E061E070E08D91E82FE295EF70DF
:10106000F0E041A18F709B0101C0220F8A95EAF741
:10107000922F9095942391A382A1822B82A381E049
:10108000A931B80749F7A9E1B1E061E070E08D91BD
:10109000E82FE295EF70F0E041A18F709B0101C055
:1010A000220F8A95EAF7922F9095942391A382A11B
:1010B000822B82A381E0A132B80749F7E0E5F1E095
:1010C000A8E4B1E088E591E011921D928E179F0788
:1010D000D9F70C94BD054F925F926F927F928F92D9
:1010E0009F92AF92BF92CF92DF92EF92FF920F93B7
:1010F0001F93CF93DF9383E1E82E81E0F82E512CEC
:10110000412CCC24C394D12CBB24B394D7018D9112
:101110007D01E82FE295EF70F0E091A18F709601CC
:1011200001C0220F8A95EAF7892F822B81A382A121
:10113000722E7094872182A3B0EABA95F1F7C601A6
:10114000042C01C0880F0A94EAF7682EA82EA094F8
:1011500008E411E049E151E0D801812C9D90EA01B9
:101160006991AE01862F82958F7090E0EC0188A185
:1011700090E06F7002C0959587956A95E2F7BD0182
:101180006150710980FD51C0862D8929EB0188834A
:101190008881981611F088248394D1E0A035BD078A
:1011A000E9F681A1782271A282A1282B22A38820AE
:1011B00041F0B09258010E94EC1590935A0180932F
:1011C0005901EFEF4E1A5E0AF6E04F16510409F08E
:1011D0009DCF809158018823A1F080915901909171
:1011E0005A010E94F815069760F0E0E5F1E0D80199
:1011F0008D918D018193B1E000351B07C1F71092ED
:1012000058010E94BF0581E0DF91CF911F910F919E
:10121000FF90EF90DF90CF90BF90AF909F908F9016
:101220007F906F905F904F9008958A2D8921AECF67
:10123000E82FF0E0E05BFE4F8081089508959093E1
:10124000600180935F010895E0915F01F09160017A
:10125000309721F00190F081E02D099480E008950D
:10126000E0915F01F0916001309721F00280F381FD
:10127000E02D09940895E0915F01F09160013097AD
:1012800021F00480F581E02D0994089520915D01FD
:1012900030915E012817390771F090935E018093B9
:1012A0005D01E0915F01F0916001309721F00680CF
:1012B000F781E02D0994089520915B0130915C0144
:1012C0002817390771F090935C0180935B01E091DE
:1012D0005F01F0916001309721F00084F185E02DED
:1012E0000994089508950C9472090E94E3150E94D0
:1012F00022080C94A516BF92CF92DF92EF92FF9234
:101300000F931F93CF93DF9300D000D00F92CDB7F0
:10131000DEB70E946B0882E6C82E81E0D82E10E06E
:1013200000E0E02E802F0E941809B82EF601F190FF
:101330006F01F81609F45BC08091EE0181FD0E94F7
:101340001E0930E020E0FB244F2D50E0922FBA011F
:10135000022E02C0759567950A94E2F760FF41C0BE
:101360002983EA8221E030E0790102C0EE0CFF1C03
:101370009A95E2F72B2D30E02E213F2181E0232B9F
:1013800009F480E08B830E94EC158160782F9D83A7
:101390008C8349815A816B818D810E941D0AF801DD
:1013A000EE59FE4F80818E2580830E9452190E9443
:1013B000240990916101891789F10E942409809381
:1013C00061010F900F900F900F900F90DF91CF91D0
:1013D0001F910F91FF90EF90DF90CF90BF900C94F2
:1013E000C3052F5F3F4F2630310509F0AFCF0F5FA8
:1013F0001F4F0830110509F094CF8FEF89838A833E
:101400001B820E94EC158160782F9D838C8349811B
:101410005A816B818D810E941D0AC7CF0F900F905A
:101420000F900F900F90DF91CF911F910F91FF9030
:10143000EF90DF90CF90BF900895CF93DF93CDB71B
:10144000DEB72B970FB6F894DEBF0FBECDBF4F832C
:10145000588769877A878B871E8285E0FE013796D9
:10146000DE01119601900D928A95E1F749815A812A
:101470006B817C818D819E812B960FB6F894DEBFA7
:101480000FBECDBFDF91CF910C949410882309F447
:10149000D8C0823871F40E94240981FDD2C089E34A
:1014A0000E943B140E94051589E30E9478140C9455
:1014B0000515833859F40E94240980FDC2C083E5D4
:1014C0000E943B140E94051583E5EFCF843859F440
:1014D0000E94240982FDB5C087E40E943B140E944B
:1014E000051587E4E2CF9CEF980F913A18F40E941B
:1014F0003B14DDCF90E2980F983050F4877091E064
:1015000001C0990F8A95EAF7892F0E94BC14CFCFAA
:101510009BE5980F933070F4853A31F0863A39F0B4
:1015200083E890E00C94460981E890E0FBCF82E8E4
:1015300090E0F8CF98E5980F953108F082C0883A8E
:1015400009F440C0893A09F440C08A3A09F440C01D
:101550008B3A09F440C08C3A09F440C08B3B09F443
:1015600040C08C3B09F440C08D3A09F440C0803B38
:1015700009F440C08E3A09F440C08F3A09F440C0E3
:10158000813B09F440C0823B09F440C0833B09F42D
:1015900040C0843B09F440C0853B09F440C0863B11
:1015A00009F440C0873B09F440C0883B09F440C0BF
:1015B000893B09F440C08A3B09F440C090E080E0D8
:1015C0000C945C0982EE90E0FBCF89EE90E0F8CFBE
:1015D0008AEE90E0F5CF85EB90E0F2CF86EB90E0DD
:1015E000EFCF83EB90E0ECCF84EB90E0E9CF87EB9B
:1015F00090E0E6CF8CEC90E0E3CF8DEC90E0E0CF94
:1016000083E891E0DDCF8AE891E0DACF82E991E0EA
:10161000D7CF84E991E0D4CF81E292E0D1CF83E2C9
:1016200092E0CECF84E292E0CBCF85E292E0C8CFC9
:1016300086E292E0C5CF87E292E0C2CF8AE292E0F2
:10164000BFCF0895882309F44BC0823871F40E94FB
:10165000240981FF45C089E30E943B140E940515BF
:1016600089E30E9478140C940515833859F40E947C
:10167000240980FF35C083E50E943B140E940515B4
:1016800083E5EFCF843859F40E94240982FF28C0F3
:1016900087E40E943B140E94051587E4E2CF9CEF8B
:1016A000980F913AF0F290E2980F983050F48770CA
:1016B00091E001C0990F8A95EAF7892F0E94C21420
:1016C000D2CF9BE5980F933020F490E080E00C940B
:1016D0004609885A853120F490E080E00C945C093A
:1016E0000895882321F00E94BC140C9405150895D8
:1016F000882321F00E94C2140C94051508958F923E
:101700009F92AF92BF92DF92EF92FF920F931F933F
:10171000CF93DF9300D000D00F92CDB7DEB77C011E
:101720006D837983FC01058102950F70128111117F
:101730000E94DB140E943414D82E882371F01123E8
:10174000A1F08D81805E883080F082E00E941E14BE
:101750000E94341491E0D82ED926E981E295EF70E9
:10176000F0E0E353FD4D0C946922D12CF6CF0981B2
:101770000F70F981F07F11F00295007F1123B1F015
:10178000002361F08D81805E883018F02D81211159
:1017900009C0802F0E94BC140E9405158D810E94F3
:1017A000460A15C0802F0E94CD14F6CF8D810E946D
:1017B000220B002361F08D81805E883018F03D811E
:1017C000311129C0802F0E94C2140E940515DD200E
:1017D00009F4D3C10E94111480FDCFC1F701128218
:1017E0000E940B140E945212C7010E94CE0D0E944B
:1017F0000B140F900F900F900F900F90DF91CF91DF
:101800001F910F91FF90EF90DF90BF90AF909F904E
:101810008F900C947412802F0E94D314D6CF4981DC
:101820004F70B42E5981507F503219F0B29480EF2E
:10183000B8228D81882369F0813029F1112369F163
:10184000002359F0F701858180FFA8CF8F70858331
:1018500004C0112361F0011104C08B2D0E94710B93
:10186000B6CF8B2D0130D1F70E94EF14B0CF01110C
:1018700006C00E94F2148B2D0E94780BA8CF013075
:1018800009F4A5CFF6CF112321F0063008F09FCF41
:10189000E4CF053008F09BCFEECF002361F38D81BC
:1018A0000E94220B94CF898186958695837069F07A
:1018B000813009F08CCF8D8199819370111102C014
:1018C00090E080E00E945C0982CF8D8199819370C5
:1018D000111102C090E080E00E94460978CF8D810E
:1018E000112329F00E9460180E94471970CF0E94AE
:1018F000C818FACF8981837009F05FC0111167CFD2
:101900002D81229526952770220F220F8D818F70B1
:1019100090E0B0E0A0E04C015D01022E04C0880C14
:10192000991CAA1CBB1C0A94D2F7FD8160E070E0F0
:10193000CB01F4FF0FC06FE070E080E090E004C0E6
:10194000660F771F881F991F2A95D2F760957095AB
:101950008095909529812695269523702D83223098
:10196000B1F0233019F19B01AC01282939294A290A
:101970005B2929833A834B835C833D8169817A812A
:101980008B819C813130B1F00E94DF1120CF9B010F
:10199000AC01282939294A295B2929833A834B83B9
:1019A0005C83CA01B9010E94091211CF0E94DF11A4
:1019B000C501B4010E94B5110ACF8695112311F01B
:1019C00089818170882309F402CF2D812295269583
:1019D0002770220F220F8D818F7090E0B0E0A0E081
:1019E0004C015D01022E04C0880C991CAA1CBB1C72
:1019F0000A94D2F73D8160E070E0CB0134FF0FC064
:101A00006FE070E080E090E004C0660F771F881FF1
:101A1000991F2A95D2F76095709580959095498188
:101A20004695469543704D834230B1F0433019F1ED
:101A30009B01AC01282939294A295B2929833A834A
:101A40004B835C833D8169817A818B819C813130BC
:101A5000B1F00E94E512BBCE9B01AC0128293929C7
:101A60004A295B2929833A834B835C83CA01B901E4
:101A70000E940F13ACCE0E94E512C501B4010E9472
:101A8000BB12A5CE3D81323F09F447C080F4303F00
:101A900079F1313FD9F1832F805E8031D0F011236D
:101AA00009F456C001117ACE89818F7133C04D81FE
:101AB000433FD1F1443F99F7112309F43FC0898195
:101AC0008F7189830E94521263E089810E941514EC
:101AD0007ECE5D815F705D8389818F71112321F0DE
:101AE0000E9452128D81BACE0E9474128D81C4CE92
:101AF000112341F0053008F06ACE89818F710E9470
:101B0000991265CE063008F062CEF7CF89818F71C9
:101B1000112339F00E9452125ACE89818F711123FC
:101B2000C9F30E94741253CE112329F089818F7159
:101B30000E943D124CCE0E94331249CE81E00E9499
:101B40001E14023008F443CE82E00E941E143FCEE1
:101B50000111A5CE89818F71E4CF49814F706D81CC
:101B6000C7010E9475040E942E1131CE49814F7029
:101B70006D81C7010E94C5052ACE0F900F900F906E
:101B80000F900F90DF91CF911F910F91FF90EF90E9
:101B9000DF90BF90AF909F908F9008950F931F9309
:101BA000CF93DF93EC018B819C81892B29F0888175
:101BB000998189238F3F29F4DF91CF911F910F9154
:101BC0000895CE010E948E048823B1F36881798143
:101BD0008A810E94E1138C010E9439130E94AA118C
:101BE000B801CE01DF91CF911F910F910C947F0B23
:101BF0000E94DB140E94EC140E94AE140E94051592
:101C00000E94381A0E94471990E080E00E9446091D
:101C100090E080E00C945C090E94CA140C94F80DCA
:101C20000E94D513282F892F82958F70903C80F4C5
:101C30008A30B0F4843020F4823090F480E008954B
:101C40008630E1F781E0203E88F0213FB9F70EC0F1
:101C50008C3011F08F3091F793FB882780F908952D
:101C600081E0203F39F018F4203E40F70895243FEA
:101C700029F7FCCF0895CF93DF9300D000D00F92C7
:101C8000CDB7DEB70F900F900F900F900F90DF91B0
:101C9000CF910895CF93DF9300D000D000D0CDB77F
:101CA000DEB726960FB6F894DEBF0FBECDBFDF912C
:101CB000CF9108951F93CF93DF93E0916B0116E0CE
:101CC00080916C018E1304C0DF91CF911F91089514
:101CD000CE2FD0E01E9FF0011124E359FE4F40812A
:101CE000518162817381848195810E944A0EFE0137
:101CF0003196E770E5CF40919D0150919E01609132
:101D00009F017091A0018091A1019091A2010C947A
:101D10004A0E1F93CF93DF938091A201807FC1F47D
:101D200080919F018823A1F080916B01C0916C018B
:101D300060919D0170919E014091A0015091A1017F
:101D4000D62FD723DA01A095B09516E0C81304C0AA
:101D5000DF91CF911F91089590E04115510511F049
:101D6000DF3F31F401968770F1CF2A0F3B1F17C078
:101D7000189FF001199FF00D1124E359FE4F2181A6
:101D80002713F0CF20812613EDCF22812111EACF36
:101D9000238134812417350740F3241B350B283C5D
:101DA000310500F72091A2012F7020612093A2013C
:101DB00026E0289FF001299FF00D1124EE58FE4FD8
:101DC00080818F70806180838DE991E00E94CE0DCB
:101DD000DF91CF911F910C945A0E9F92AF92BF92B8
:101DE000CF92DF92EF92FF920F931F93CF93DF93E7
:101DF000CDB7DEB72B970FB6F894DEBF0FBECDBFC1
:101E00008C0185E0F801DE01179601900D928A950C
:101E1000E1F7D8014C9111965C9111971296EC90D4
:101E200012978091A0019091A101009709F46BC1D4
:101E300020919D0130919E01632F62236F3F09F431
:101E400062C11396CD90DC9090909F01992009F487
:101E5000F8C0C816D90608F43FC0F601E81BF90B14
:101E6000CF01FF24F394883C910508F0F12C8DE913
:101E7000A82E81E0B82E8091A201982F907FFF209C
:101E800009F4B7C0911180C0FE2C35132AC0241369
:101E900028C0E11026C08F7080618093A2010E944B
:101EA0007B0EC5010E94CE0D8091A201D80115962E
:101EB0008C938F2D2B960FB6F894DEBF0FBECDBF3F
:101EC000DF91CF911F910F91FF90EF90DF90CF9016
:101ED000BF90AF909F900895809590958C0D9D1D1B
:101EE000C0CFCD2829F0842F85238F3F09F019C159
:101EF00080E0B82FB170DB2EE0916B0120916C0176
:101F000036E080FD1CC0EE20A1F28091A20181602C
:101F10008093A201F12CCDCF8E2F90E03E9FF00157
:101F20001124E359FE4F6181651306C0608164137B
:101F300003C062816E11E7CFFC013196E770E213B6
:101F4000EBCF4F8358878F8198850E94D513292F17
:101F500022952F70903260F0225F2F70223078F43B
:101F60009F7051F0F8019581907F31F4D12C0AC017
:101F70009F7011F08823D1F3805E8830B8F3C801D8
:101F80000E94CE0DFD2C95CF351306C0241304C03E
:101F9000D801EE2009F47BC04F8358878F81988544
:101FA0000E94100E882309F4B8C0EE2009F4B5C0D1
:101FB0008091A201803270F020919D0130919E01AC
:101FC0003A8329831B82DD82CC828E83CE010196E7
:101FD0000E94CE0D86E0F801ADE9B1E001900D92CE
:101FE0008A95E1F70E94890E0E947B0EFF24F394EC
:101FF00060CF911113C07C2DDB86CA866E2D8B8538
:102000000E943B0E8DE991E00E94CE0D86E0F50125
:1020100011928A95E9F70E947B0E4BCF3513BCCF06
:102020002413BACFE110B8CFD80115968C93C8010C
:102030000E94CE0D86E0F50111928A95E9F7F92C00
:1020400038CFC816D90688F1B601681B790BCB01C9
:10205000F12C883C910508F047C0FE2CEE2009F4D5
:102060005CC0351330C024132EC08091A20180FDC6
:1020700021C0982F907FF1F0D80115968C93159779
:10208000903F39F0982F907F905F8F70892B159635
:102090008C93C8010E94CE0D86E0F801ADE9B1E055
:1020A00001900D928A95E1F7B6CF809590958C0DB1
:1020B0009D1DCECF86E0F801ADE9B1E001900D9213
:1020C0008A95E1F7F6CE4F8358878F8198850E94D5
:1020D000100E81117FCF8091A20181608093A201B7
:1020E000C8010E94CE0DE5CE7C2DDB86CA866E2D02
:1020F0008B850E943B0E86E0EDE9F1E0DF011D9249
:102100008A95E9F788CFEE2041F04F8358878F8179
:1021100098850E94100E81115DCFC8010E94CE0DDE
:1021200065CF81E08E25E5CE1F93CF93DF93CDB7AA
:10213000DEB72C970FB6F894DEBF0FBECDBF4F832E
:10214000588769877A878B879C87CE0107960E947C
:10215000ED0E882369F08A859B85892B39F04F81A4
:102160005885842F85238F3F09F071C016E05FC02A
:1021700086E0FE013796DE01119601900D928A9558
:10218000E1F78A859B85892B89F388859F8189233F
:102190008F3F61F320916C0130E0C9010196877097
:1021A000992740916B014817190671F40E940C0E93
:1021B00010926C0110926B0186E0EDE9F1E0DF0115
:1021C0001D928A95E9F7D2CF96E0929FD001939F16
:1021D000B00D1124A359BE4FFE01319601900D920E
:1021E0009A95E1F780936C010E945A0EBFCF819FB0
:1021F000C001112483599E4F0E94ED0E8823E9F0FF
:10220000E0916B011E9FF0011124E359FE4F4081C4
:10221000518162817381848195810E944A0E8091EF
:102220006B0190E001968770992780936B018091F4
:102230006B0190916C018913DACF2C960FB6F8944C
:10224000DEBF0FBECDBFDF91CF911F91089569858D
:102250007A858B859C850E944A0E88CFEF92FF92EB
:102260000F931F93CF93DF938C01892B89F0F12C6F
:10227000EE24E394E8012196F8018491843709F46F
:1022800057C0A0F4823009F43EC048F48130D1F048
:10229000DF91CF911F910F91FF90EF9008959CEFE8
:1022A000980F9037A8F70E94460A0AC0853709F4AC
:1022B0004CC09CE7980F903758F78F770E94220BFD
:1022C0008E0116C00E5F1F4FFE01849190E2980FA1
:1022D000983060F48770FE2D01C0FF0F8A95EAF7F1
:1022E0008F2F0E94DE140E94051502C00E94460A2C
:1022F0008F2D815008F4BECFEFE9FFE03197F1F761
:1023000000C00000F6CF0E5F1F4FFE01849190E2E7
:10231000980F983050F48770FE2D01C0FF0F8A95FA
:10232000EAF78F2F0E94E414DECF0E94220BE0CF49
:102330000E5F1F4FFE01C491C150D0F28FE99FE0A4
:102340000197F1F700C00000F7CF0E5F1F4FFE01AD
:10235000F490CECF08956093C5017093C601809329
:10236000C7019093C8010C94F80DCF93DF9300D070
:1023700000D0CDB7DEB769837A838B839C8380914D
:10238000C5019091C601A091C701B091C8012981F2
:102390003A814B815C81822B932BA42BB52B8093AC
:1023A000C5019093C601A093C701B093C8010F90D7
:1023B0000F900F900F90DF91CF910C94F80DCF9369
:1023C000DF9300D000D0CDB7DEB769837A838B83EB
:1023D0009C838091C5019091C601A091C701B091E5
:1023E000C80129813A814B815C8182239323A423F4
:1023F000B5238093C5019093C601A093C701B09304
:10240000C8010F900F900F900F90DF91CF910C9417
:10241000F80DCF93DF9300D000D0CDB7DEB769833E
:102420007A838B839C838091C5019091C601A09192
:10243000C701B091C80129813A814B815C81822713
:102440009327A427B5278093C5019093C601A09335
:10245000C701B093C8010F900F900F900F90DF91BC
:10246000CF910C94F80D1092C1011092C2011092FC
:10247000C3011092C4010C94F80D41E050E060E0FB
:1024800070E004C0440F551F661F771F8A95D2F76E
:102490004093C1015093C2016093C3017093C40182
:1024A0000C94F80D282F81E090E0A0E0B0E004C08B
:1024B000880F991FAA1FBB1F2A95D2F74091C1010F
:1024C0005091C2016091C3017091C401842B952B7E
:1024D000A62BB72B8093C1019093C201A093C30197
:1024E000B093C4010C94F80D41E050E060E070E05E
:1024F00004C0440F551F661F771F8A95D2F7409579
:102500005095609570958091C1019091C201A09104
:10251000C301B091C40184239523A623B7238093DC
:10252000C1019093C201A093C301B093C4010C9464
:10253000F80D282F81E090E0A0E0B0E004C0880F03
:10254000991FAA1FBB1F2A95D2F74091C101509134
:10255000C2016091C3017091C40184279527A62709
:10256000B7278093C1019093C201A093C301B09398
:10257000C4010C94F80DCF93DF9300D000D0CDB7F9
:10258000DEB769837A838B839C838091C1019091AC
:10259000C201A091C301B091C40129813A814B814C
:1025A0005C81822B932BA42BB52B8093C10190933C
:1025B000C201A093C301B093C4010F900F900F907C
:1025C0000F90DF91CF910C94F80DCF93DF9300D053
:1025D00000D0CDB7DEB769837A838B839C838091EB
:1025E000C1019091C201A091C301B091C4012981A0
:1025F0003A814B815C8182239323A423B52380936A
:10260000C1019093C201A093C301B093C4010F9084
:102610000F900F900F90DF91CF910C94F80DCF9306
:10262000DF9300D000D0CDB7DEB769837A838B8388
:102630009C838091C1019091C201A091C301B0918E
:10264000C40129813A814B815C8182279327A42789
:10265000B5278093C1019093C201A093C301B093A9
:10266000C4010F900F900F900F90DF91CF910C94B9
:10267000F80D0895292F220FE22FE90FEE0FE80F32
:102680008E2F877041E001C0440F8A95EAF7E695E6
:10269000E695E69585E0E89FF0011124ED55FE4FA3
:1026A00030E020E070E05191DF011197CB01022E64
:1026B00002C0969587950A94E2F7817081958527E7
:1026C000842385278C932F5F3F4F2530310559F7A1
:1026D0000895292F220FE22FE90FEE0FE80F9E2F0A
:1026E0009770E695E695E69585E0E89FF001112460
:1026F000ED55FE4F50E040E080E0219130E0092EA2
:1027000002C0369527950A94E2F721703327042EEC
:1027100001C0220F0A94EAF7822B4F5F5F4F4530CA
:10272000510559F70895BF92CF92DF92EF92FF9231
:102730000F931F93CF93DF938C01C090C101D09072
:10274000C201E090C301F090C4018091C501909155
:10275000C601A091C701B091C801C82AD92AEA2AA6
:10276000FB2ACFE1D0E0BC2ED701C6010C2E04C05D
:10277000B695A795979587950A94D2F780FD0EC0D8
:10278000219788F7B12C8B2DDF91CF911F910F915D
:10279000FF90EF90DF90CF90BF900895B8018C2FFD
:1027A0000E94E205019761F3EECFCF93DF93D82F1C
:1027B000C92F0E9493136D2F7C2FDF91CF910C9422
:1027C000E2051F93CF93DF93162FD72F90916A01C5
:1027D000992339F0862F972FDF91CF911F910C9479
:1027E000D513882391F0862F972F0E949313C82F1B
:1027F000682F812F9D2F0E943A13612F7D2F8C2FE0
:10280000DF91CF911F910C94E205862F972F0E94A4
:102810006913C82FF2CF8091C9018595859585955B
:1028200008958091C9018770089598E0899F90016B
:102830001124622B6093C9010C9452129091C9012A
:10284000809589238093C901282F277061F4282F50
:10285000082E000C330B9217130629F085958595E9
:1028600085950C94741208959091C901977081E038
:1028700009F480E00895909112019923E1F090917C
:102880001F0297FF18C0E82FE695E695E695EF3111
:1028900039F12091000130910101E20FF32FF11D78
:1028A000877021E030E001C0220F8A95EAF781812C
:1028B000822B818308952091000130910101F9015B
:1028C00032969FEF40E05191851751F09F3F19F4E8
:1028D000511101C0942F4F5F4E31A9F79F3F09F46A
:1028E0000895290F311D97FD3A95F90182830895C6
:1028F00090911201992301F190911F0297FF1CC042
:10290000E82FE695E695E695EF3139F12091000143
:1029100030910101E20FF32FF11D877021E030E0CB
:10292000A90102C0440F551F8A95E2F7CA0180959C
:1029300091818923818308952091000130910101C3
:10294000F9013296205E3F4F9191891303C0DF0158
:1029500011971C92E217F307B9F7089581E090E010
:10296000E0910001F0910101E80FF91F108201963A
:1029700080329105A9F708959091ED01982B9093DD
:10298000ED010895982F90958091ED018923809312
:10299000ED0108951092ED0108959091EC01982BAE
:1029A0009093EC010895982F90958091EC018923E4
:1029B0008093EC0108951092EC0108959091EB0141
:1029C000982B9093EB010895982F90958091EB01AF
:1029D00089238093EB0108951092EB010895809371
:1029E000CA0108951092CA01089520910001309102
:1029F0000101F9013196205E3F4F80E091919111E4
:102A00008F5FE217F307D1F70895E0910001F0918D
:102A100001018091ED018083E0910001F0910101BD
:102A200080819091EC01892B8083E0910001F091ED
:102A3000010180819091EB01892B80839091CA01E3
:102A4000992361F0E0910001F09101018081892BCF
:102A500080830E94F51481111092CA0180910001B7
:102A6000909101010C9430096DEE7EEF90E080E0D2
:102A70000E94A32260E082E090E00E94912260E048
:102A800083E090E00E94912260E084E090E00E9468
:102A9000912260E085E090E00C94912290E080E04B
:102AA0000E948B229C0181E02D3E3E4F09F080E088
:102AB000089582E090E00C948322682F82E090E0F9
:102AC0000C94912283E090E00C948322682F83E0A1
:102AD00090E00C94912284E090E00C948322682F83
:102AE00084E090E00C94912280912502843039F1A9
:102AF0001092EF0188E190E020E40FB6F894A895D9
:102B0000809360000FBE2093600080E00E94C305A8
:102B100083B7817F846083BF83B7816083BF7894EC
:102B2000889583B78E7F83BF0FB6F894A895809160
:102B30006000886180936000109260000FBE08956D
:102B400008950895CF930E94A0150E946B080E94DB
:102B5000A115C0E08C2F0E941809811105C0CF5F1C
:102B6000C830C1F7CF91089581E0FCCF0E940C0ED0
:102B70000E9424090C94C3051F921FB61F921124B2
:102B80008F939F93AF93BF938091EF01811113C0F7
:102B900080911B0290911C02A0911D02B0911E0217
:102BA0004196A11DB11D80931B0290931C02A0931E
:102BB0001D02B0931E02BF91AF919F918F911F9004
:102BC0001FBE1F90189582E084BD93E095BD9AEFDB
:102BD00097BD80936E0008952FB7F89480911B02E3
:102BE00090911C02A0911D02B0911E022FBF08956A
:102BF000CF92DF92EF92FF929C014FB7F8948091B1
:102C00001B0290911C02A0911D02B0911E024FBFA9
:102C10006C017D01EE24FF24A90170E060E0C41680
:102C2000D506E606F70638F0821B930BFF90EF906F
:102C3000DF90CF9008950197F7CF1F921FB61F9294
:102C400011248F939F93AF93BF9380911B02909118
:102C50001C02A0911D02B0911E020196A11DB11D82
:102C600080931B0290931C02A0931D02B0931E023E
:102C7000BF91AF919F918F911F901FBE1F9018958C
:102C80000E942C1EF8942FEF87EA91E62150804095
:102C90009040E1F700C0000087E090EBDC018093FA
:102CA0002E0290932F02A0933002B093310288E15C
:102CB0009CE00FB6F894A895809360000FBE9093A7
:102CC0006000FFCFCF92DF92EF92FF920F931F939E
:102CD000CF93C0E0E82EF12C8C2F0E94180910E051
:102CE00000E0C82ED12CC601002E02C09595879514
:102CF0000A94E2F780FF11C0602F7C2F80E00E94D1
:102D0000C605E816F90649F481E0CF911F910F91AD
:102D1000FF90EF90DF90CF9008950F5F1F4F063028
:102D2000110509F7CF5FC830B9F680E0EECFCF9339
:102D3000C82F8CE20E946216882321F08C2FCF913D
:102D40000C94621680E0CF910895CF93DF9300D06A
:102D500000D0CDB7DEB70E944E15811102C00E948F
:102D6000341595E6998308C00E946B088FE39CE9AF
:102D70000197F1F700C00000A981A150A983A1111A
:102D8000F3CF89E20E949716811110C18AE20E9456
:102D9000971681110E94341585E00E9497168111C3
:102DA0000E9440160E9459158093EE0187E00E9410
:102DB0009716882371F08BE10E949716882309F4F7
:102DC000D1C09091EE01892F8D7F91FF8260809319
:102DD000EE018091EE010E945D150E946B1590E05E
:102DE0009093200280931F0280EE0E949716882302
:102DF00041F090911F02892F8E7F90FF8160809318
:102E00001F0289E30E949716882341F090911F02C8
:102E1000892F8D7F91FF826080931F0282EE0E9436
:102E20009716882341F090911F02892F8B7F92FF84
:102E3000846080931F0286EE0E949716882341F0DB
:102E400090911F02892F877F93FF886080931F02D4
:102E500083EE0E949716882341F090911F02892FDC
:102E60008F7E94FF806180931F0285E30E949716F6
:102E7000882341F090911F02892F8F7D95FF8062FA
:102E800080931F0281E30E949716882341F090915E
:102E90001F02892F8F7B96FF806480931F0281E140
:102EA0000E949716882341F090911F02892F97FB6B
:102EB00087F9805880931F0280911F020E946F152E
:102EC00087E20E94971689838EE10E9497168823D5
:102ED00019F0B981B260B9838FE10E9497168823F7
:102EE00019F029812460298380E20E9497168823A3
:102EF00019F039813860398381E20E94971688235E
:102F000019F049814061498382E20E949716882323
:102F100019F059815062598383E20E9497168823E1
:102F200019F089818064898384E20E94971688233E
:102F3000B1F199819068998389810E9466153981E0
:102F4000232F30E050E040E029833A834B835C83B9
:102F5000CA01B9010F900F900F900F90DF91CF91A0
:102F60000C94AB118EE00E949716882339F0909153
:102F7000EE01892F8B7F92FF846029CF80E10E9430
:102F800097169091EE01882329F0892F877F93FF70
:102F900088601DCF892F8E7F90FF816018CFA98117
:102FA000A111CACF0E946215282FCBCF0F900F908E
:102FB0000F900F90DF91CF9108958091F20180FFE3
:102FC00012C06091050185E0689FB00111247595DC
:102FD00067957595679560387105A8F56115710558
:102FE000A1F1862F089581FF09C06091050185E058
:102FF000689FB001112475956795EDCF609105012B
:1030000082FD0AC08091F3018823D1F090910401E0
:1030100060910501891728F085E0689FB0011124AF
:10302000DACF869FB001112485E0869F9001879FAB
:10303000300D1124692F70E0C9010E945522CBCFB9
:1030400065E070E0CECF8FE7089581E0089580912C
:10305000F20180FF0CC06091030170E075956795E7
:10306000759567956115710549F1862F089581FF62
:1030700006C06091030170E075956795F3CF60918C
:10308000030182FD0BC09091F3019923A1F060919F
:10309000020180910301961738F0682F70E06038C4
:1030A000710500F38FE70895899FC001112470E036
:1030B0000E945522F4CF61E070E0D7CF81E00895FF
:1030C000803F31F40E94DD1781958093F6010895C9
:1030D000813F19F40E94DD17F8CF823F31F40E943E
:1030E000DD1781958093F5010895833F19F40E94BF
:1030F000DD17F8CF893F29F40E9427188093F70144
:1031000008958A3F21F40E9427188195F7CF8B3FBD
:1031100031F40E94271881958093F80108958C3F1F
:1031200019F40E942718F8CF843F31F48091F401FC
:1031300081608093F4010895853F21F48091F4012A
:103140008260F7CF863F21F48091F4018460F1CF53
:10315000873F21F48091F4018860EBCF883F21F410
:103160008091F4018061E5CF8D3F31F48091F201CF
:1031700081608093F20108958E3F21F48091F201E5
:103180008260F7CF8F3FB9F78091F2018460F1CF71
:103190009091F501803F41F48091F60187FD1092F6
:1031A000F601992371F00895813F29F48091F60189
:1031B0001816ACF3F6CF823F81F497FFF2CF10924E
:1031C000F5018091F6019091F701892B9091F8011A
:1031D000892B49F71092F3010895833F19F41916CA
:1031E00074F3DFCF893F39F48091F7011816CCF6DC
:1031F0001092F701D6CF8A3F29F48091F70187FF1B
:10320000D0CFF6CF8B3F39F48091F80187FFC9CF3B
:103210001092F801C6CF8C3F29F48091F80118165E
:10322000BCF3BFCF843F31F48091F4018E7F809353
:10323000F401B7CF853F21F48091F4018D7FF7CF62
:10324000863F21F48091F4018B7FF1CF873F21F4F9
:103250008091F401877FEBCF883F21F48091F401C6
:103260008F7EE5CF8D3F31F48091F2018E7F809388
:10327000F20197CF8E3F21F48091F2018D7FF7CF3D
:103280008F3F09F08ECF8091F2018B7FF0CF84EFDA
:1032900091E00E943B090E94EC159093F10180930C
:1032A000F00108951F93CF93DF9300D000D000D09A
:1032B000CDB7DEB78091F0019091F1010E94F81531
:1032C000AC018091F3012091060130E0811106C02C
:1032D000209107019AE0299F90011124421753077A
:1032E00088F02091F501A091F601A9831091F701D2
:1032F000B091F801BE8321110FC09A2F912B9B2B07
:1033000009F0B2C026960FB6F894DEBF0FBECDBF4F
:10331000DF91CF911F9108958F3F19F08F5F8093B8
:10332000F301121624F40E94DD178093F5018091B9
:10333000F50187FF05C00E94DD1781958093F50197
:103340002981121624F40E94DD178093F6018091E2
:10335000F60187FF05C00E94DD1781958093F60175
:103360008091F501882309F455C03091F6013D8321
:10337000332309F44FC0282F880F330B440B550B10
:1033800029833A834B835C83CA01B9010E945C2183
:1033900023E333E343E35FE369837A838B839C8393
:1033A00069817A818B819C810E94C02169837A83A3
:1033B0008B839C8369817A818B819C810E942421EB
:1033C0006093F5018D81082E000C990BAA0BBB0BA5
:1033D00089839A83AB83BC83BC01CD010E945C21AD
:1033E00023E333E343E35FE369837A838B839C8343
:1033F00069817A818B819C810E94C02169837A8353
:103400008B839C8369817A818B819C810E9424219A
:103410006093F601111624F40E9427188093F70197
:103420008091F70187FF05C00E942718819580933E
:10343000F7019E81191624F40E9427188093F80141
:103440008091F80187FF05C00E942718819580931D
:10345000F80126960FB6F894DEBF0FBECDBFDF9100
:10346000CF911F910C9447198F3F09F057CF68CF28
:1034700085E0E4EFF1E0DF011D928A95E9F7109213
:10348000F3011092F2010895809119020895CF93EB
:10349000DF9300D00F92CDB7DEB720912502243004
:1034A00019F523E029838A839B832093E9008FEF1A
:1034B0009091E800815095FD06C095ED9A95F1F741
:1034C00000008111F5CF8091E80085FF0DC050E02C
:1034D00040E063E070E0CE0101960E94A41C809160
:1034E000E8008E778093E8000F900F900F90DF91A7
:1034F000CF910895CF93DF9300D00F92CDB7DEB771
:103500009C0180912502843031F582E08983205826
:1035100031093B832A8383E08093E9008FEF909108
:10352000E800815095FD06C095ED9A95F1F70000F1
:103530008111F5CF8091E80085FF0DC050E040E09B
:1035400063E070E0CE0101960E94A41C8091E80027
:103550008E778093E8000F900F900F90DF91CF91BE
:103560000895209125022430F1F422E02093E9000F
:103570002FEF3091E800215035FD06C035ED3A952A
:10358000F1F700002111F5CF2091E80025FF0BC0D5
:1035900050E040E065E070E00E94A41C8091E800EB
:1035A0008E778093E8000895CF93DF93D82FC92FAB
:1035B000809125028430F1F4909112019923E9F071
:1035C00090911F0297FF19C08093E9008FEF9091AF
:1035D000E800815095FD06C095E19A95F1F700004D
:1035E0008111F5CF8091E80050E040E060E270E0AA
:1035F00085FD1AC0DF91CF91089581E08093E900A5
:103600008FEF9091E800815095FD06C095ED9A9559
:10361000F1F700008111F5CF8091E80085FFEACF36
:1036200050E040E068E070E08D2F9C2F0E94A41CC9
:103630008091E8008E778093E80080E2ED2FFC2FE8
:10364000A9EFB1E001900D928A95E1F7D3CF809177
:103650002402811109C00E942C1E0E94891E8091A3
:10366000E20084608093E20008951092240208959D
:10367000089508950C94B61542E061EC81E00E9433
:10368000A81D42E061EC82E00E94A81D42E061ECCE
:1036900083E00E94A81D42E261EC84E00C94A81D26
:1036A00080912702893089F148F4823009F494C06E
:1036B000833009F44FC0813041F008958A3009F415
:1036C0007BC08B3009F461C0089580912602813A55
:1036D00009F03FC08091E800877F8093E8008091E7
:1036E0002A0290912B02892B61F460E289EF91E02C
:1036F00070E00E94F31C8091E8008B778093E800D3
:10370000089560E090E080E0F3CF8091260281325E
:1037100001F580912A0290912B02009711F00397F6
:10372000C1F48091E800877F8093E8008091E800F1
:1037300082FF0BC08091F100809319028091E80014
:103740008B778093E8000C94DC1D80912502811119
:10375000EDCF089580912602813AD9F780912A020F
:1037600090912B02892BA9F78091E800877F8093A5
:10377000E8008091E80080FFFCCF809112018093E7
:10378000F1008091E8008E77DCCF809126028132B3
:1037900001F780912A0290912B02892BD1F680911A
:1037A000E800877F8093E8000E94DC1D809128025A
:1037B000809312010C940C0E80912602813249F6FE
:1037C0008091E800877F8093E8000E94DC1D809153
:1037D000290280931A02089580912602813A09F005
:1037E000B8CF8091E800877F8093E8008091E8005F
:1037F00080FFFCCF80911A02C2CF84B7877F84BF3D
:103800000FB6F894A895809160008861809360005D
:10381000109260000FBE80E88093610010926100FA
:103820000E9473090E942C1E0E94891E8091E20052
:1038300084608093E20078940E9409210E947509B7
:1038400088E091E00E941F0980912502853019F0DF
:103850000E947B09F9CF0E9474158091230288236E
:1038600099F30E94A215882379F30E948E1CECCF55
:103870009C01DA01892F992783309105C1F068F402
:103880008130910509F445C0029761F48DE690E01E
:103890002CED36E02D933C93089581329105E1F0B3
:1038A000829739F190E080E030E020E0F3CFC90169
:1038B0009927213059F08230910559F0E8EDF6E072
:1038C000892B81F7849190E09F01E4CFE0ECF6E052
:1038D000F9CFECEAF6E0F6CF643020F7E62FF0E01F
:1038E000EE0FFF1FE35DFE4F2081318189E090E004
:1038F000D1CF6430B8F670E0FB01EE0FFF1FEB5D37
:10390000FE4F208131816F5D7E4FFB01808190E011
:10391000C1CF82E190E029E437E0BCCF80E189BDEE
:1039200082E189BD09B400FEFDCF8091D8008F7D72
:103930008093D8008091E00082608093E0008091C5
:10394000E00081FDFCCF0895AF92BF92CF92DF924D
:10395000FF920F931F93CF93DF936C01EB018A01CA
:103960000E94FB1DF82E811123C00115110539F0AD
:10397000F80180819181C81BD90BC80ED91EB12CCA
:10398000A12C2097A9F08091E80085FD22C08091AC
:10399000E8008E778093E80001151105A1F0F80189
:1039A00080819181A80EB91EB182A08285E0F82E97
:1039B0008F2DDF91CF911F910F91FF90DF90CF90CE
:1039C000BF90AF9008950E94FB1D8823D1F2F82E7E
:1039D000EFCFF60181916F018093F1002197FFEF06
:1039E000AF1ABF0ACECFFC01CB0120912C0230913F
:1039F0002D022617370790F0009729F42091E80050
:103A00002E772093E80040E0009751F4411108C060
:103A10008091E80082FF31C080E00895C901F3CFB2
:103A2000209125022223A9F12530A9F12091E80057
:103A300023FD2DC02091E80022FDEACF2091E8006F
:103A400020FFE2CF3091F3002091F200009719F0AF
:103A50002830310558F041E02830310509F040E0C8
:103A60002091E8002E772093E800CECF419140933B
:103A7000F10001972F5F3F4FE9CF80912502882306
:103A800041F0853041F08091E80083FFC1CF81E0B3
:103A9000089582E0089583E00895FC01CB01209110
:103AA0002C0230912D022617370790F0009729F449
:103AB0002091E8002E772093E80040E0009751F431
:103AC000411108C08091E80082FF32C080E0089573
:103AD000C901F3CF209125022223B1F12530B1F1A4
:103AE0002091E80023FD2EC02091E80022FDEACFBE
:103AF0002091E80020FFE2CF3091F3002091F20006
:103B0000009719F02830310558F041E02830310590
:103B100009F040E02091E8002E772093E800CECF16
:103B200044914093F100319601972F5F3F4FE8CFCA
:103B300080912502882341F0853041F08091E80092
:103B400083FFC0CF81E0089582E0089583E0089567
:103B5000982F973028F08F708093E90081E00895C6
:103B60009093E900242F762F50E0981731F0709150
:103B7000EC002091ED005091F00021FD02C09F5F0C
:103B8000E8CF3091EB003E7F3093EB003091ED00B9
:103B90003D7F3093ED003091EB0031603093EB00CE
:103BA0007093EC002093ED005093F0002091EE0014
:103BB00027FDE5CF80E008958091260287FF13C09E
:103BC0008091E80082FF06C08091E8008B778093A7
:103BD000E80004C0809125028111F2CF0895809100
:103BE00025028823D9F38091E80080FFF8CF8091E7
:103BF000E8008E77ECCF2091E4003091E50095E667
:103C0000A9012091EC00822F817020FF06C08091D5
:103C1000E80080FF06C080E008952091E80022FDC2
:103C20001AC080912502882389F0853089F080911F
:103C3000EB0085FD0FC02091E4003091E5004217B4
:103C40005307F9F29150E1F684E0089582E0089577
:103C500083E0089581E008950E949A1E0E94A21EAA
:103C6000E0EEF0E0808181608083E8EDF0E080812B
:103C70008F77808319BCA7EDB0E08C918E7F8C93F9
:103C800080818F7E80831092240208950F931F936A
:103C9000CF93DF930E949A1E0E94A21EC8EDD0E02F
:103CA00088818F77888388818068888388818F7DE9
:103CB000888319BC109225021092210210922302CF
:103CC0001092220200EE10E0F80180818B7F808349
:103CD00088818160888342E060E080E00E94A81DC6
:103CE000E1EEF0E080818E7F8083E2EEF0E0808183
:103CF00081608083808188608083F80180818E7FED
:103D00008083888180618883DF91CF911F910F919B
:103D10000895E8EDF0E080818F7E8083E7EDF0E0AC
:103D200080818160808384E082BF81E0809324026F
:103D30000C94461EE8EDF0E080818E7F8083109227
:103D4000E20008951092DA001092E10008951F92A7
:103D50000F920FB60F9211242F933F934F935F93BF
:103D60006F937F938F939F93AF93BF93EF93FF9343
:103D70008091E10082FF0BC08091E20082FF07C0CA
:103D80008091E1008B7F8093E1000E940821809167
:103D9000DA0080FF19C08091D80080FF15C08091A3
:103DA000DA008E7F8093DA008091D90080FF94C082
:103DB00080E189BD82E189BD09B400FEFDCF81E0CB
:103DC000809325020E94271B8091E10080FF19C08B
:103DD0008091E20080FF15C08091E2008E7F809389
:103DE000E2008091E20080618093E2008091D8003F
:103DF00080628093D80019BC85E0809325020E94E0
:103E0000391B8091E10084FF29C08091E20084FF8A
:103E100025C080E189BD82E189BD09B400FEFDCFE6
:103E20008091D8008F7D8093D8008091E1008F7EB3
:103E30008093E1008091E2008F7E8093E200809188
:103E4000E20081608093E20080912102882309F4DE
:103E500049C084E0809325020E943A1B8091E100D2
:103E600083FF29C08091E20083FF25C08091E1009B
:103E7000877F8093E10082E08093250210922102E7
:103E80008091E1008E7F8093E1008091E2008E7F3F
:103E90008093E2008091E20080618093E20042E042
:103EA00060E080E00E94A81D8091F000886080930F
:103EB000F0000E94381BFF91EF91BF91AF919F914D
:103EC0008F917F916F915F914F913F912F910F90C3
:103ED0000FBE0F901F90189519BC109225020E94DA
:103EE000351B72CF8091E30087FD02C081E0B2CF25
:103EF00083E0B0CF1F920F920FB60F9211242F9331
:103F00003F934F935F936F937F938F939F93AF9361
:103F1000BF93CF93DF93EF93FF93D091E900DF70CE
:103F20008091EC00C82FC17080FDC0E81092E900BC
:103F30008091F000877F8093F00078940E94BE1FEC
:103F40001092E9008091F00088608093F000CD2B02
:103F5000CF70C093E900FF91EF91DF91CF91BF91B6
:103F6000AF919F918F917F916F915F914F913F9111
:103F70002F910F900FBE0F901F9018951F93CF9306
:103F8000DF93CDB7DEB7AA970FB6F894DEBF0FBEAA
:103F9000CDBF86E292E0FC0101962091F1002083E2
:103FA00022E08E329207B9F70E94501B8091E80000
:103FB00083FF16C180912602909127029A3008F063
:103FC0000FC1E92FF0E0E352FD4D0C9469228038D7
:103FD00081F0823809F004C180912A028F708093A9
:103FE000E9008091EB0085FB882780F91092E900B9
:103FF00006C08091220290912302911182609091DB
:10400000E800977F9093E8008093F1001092F10010
:104010008091E8008E77E0C0882309F4CEC082301A
:1040200009F0DEC0809128028111D1C080912A025E
:104030008F7009F4D5C08093E9002091EB0020FF38
:10404000C6C0933031F48091EB0080628093EB0026
:10405000BEC09091EB0090619093EB0021E030E0C6
:1040600001C0220F8A95EAF72093EA001092EA0035
:104070008091EB008860EACF8111B2C010912802D4
:104080001F778091E3008078812B8093E3008091FB
:10409000E800877F8093E8000E94DC1D8091E800A3
:1040A00080FFFCCF8091E30080688093E30082E092
:1040B000111183E08093250293C08058823008F06C
:1040C0008FC080912802909129028C3D23E09207B5
:1040D000A1F583E08A838AE289834FB7F894DE01F1
:1040E000139620E03EE051E2E32FF0E050935700BA
:1040F000E49120FF03C0E295EF703F5FEF708E2FD9
:1041000090E0EA30C0F0C7968D939D932F5F2431E5
:1041100059F74FBF8091E800877F8093E8006AE2FB
:1041200070E0CE0101960E94F31C8091E8008B772D
:104130008093E80055C0C096E7CFAE014F5F5F4F58
:1041400060912A020E94381CBC01892B09F448C0E6
:104150008091E800877F8093E80089819A810E949E
:104160004D1DE3CF8038E1F58091E800877F809393
:10417000E800809121028093F1004ACF811130C084
:1041800090912802923060F58091E800877F8093BB
:10419000E800909321020E94DC1D80912102882377
:1041A00011F084E005C08091E30087FDFACF81E043
:1041B000809325020E943C1B13C08091280281300D
:1041C00079F481E0933009F080E08093230210922B
:1041D000E9008091E800877F8093E8000E94DC1D61
:1041E0008091E80083FF0AC08091E800877F809378
:1041F000E8008091EB0080628093EB00AA960FB6F6
:10420000F894DEBF0FBECDBFDF91CF911F9108950F
:104210000895CF93809125028823A1F0C091E900F1
:10422000CF709091EC00892F817090FD80E8C82BB1
:104230001092E9008091E80083FD0E94BE1FCF70BC
:10424000C093E900CF9108950E942B216894B11189
:104250000C94BA2108950E949F2188F09F5798F0EE
:10426000B92F9927B751B0F0E1F0660F771F881F7B
:10427000991F1AF0BA95C9F714C0B13091F00E9495
:10428000B921B1E008950C94B921672F782F8827C0
:10429000B85F39F0B93FCCF3869577956795B395BC
:1042A000D9F73EF490958095709561957F4F8F4F2B
:1042B0009F4F0895E89409C097FB3EF49095809530
:1042C000709561957F4F8F4F9F4F9923A9F0F92FDC
:1042D00096E9BB279395F695879577956795B7955A
:1042E000F111F8CFFAF4BB0F11F460FF1BC06F5F40
:1042F0007F4F8F4F9F4F16C0882311F096E911C052
:10430000772321F09EE8872F762F05C0662371F072
:1043100096E8862F70E060E02AF09A95660F771F86
:10432000881FDAF7880F9695879597F9089557FDB6
:104330009058440F551F59F05F3F71F04795880F13
:1043400097FB991F61F09F3F79F0879508951216AA
:1043500013061406551FF2CF4695F1DF08C0161656
:1043600017061806991FF1CF869571056105089407
:104370000895E894BB2766277727CB0197F908951E
:104380000E94D3210C9444220E94362238F00E94CD
:104390003D2220F0952311F00C942D220C94332211
:1043A00011240C94BA210E94972170F3959FC1F3B8
:1043B000950F50E0551F629FF001729FBB27F00DD3
:1043C000B11D639FAA27F00DB11DAA1F649F662728
:1043D000B00DA11D661F829F2227B00DA11D621F77
:1043E000739FB00DA11D621F839FA00D611D221F31
:1043F000749F3327A00D611D231F849F600D211D15
:10440000822F762F6A2F11249F5750409AF0F1F097
:1044100088234AF0EE0FFF1FBB1F661F771F881F00
:1044200091505040A9F79E3F510580F00C942D22E9
:104430000C94BA215F3FE4F3983ED4F386957795C8
:104440006795B795F795E7959F5FC1F7FE2B880FA6
:10445000911D9695879597F9089597F99F6780E83C
:1044600070E060E008959FEF80EC089500240A94C6
:104470001616170618060906089500240A9412163F
:104480001306140605060895092E0394000C11F472
:10449000882352F0BB0F40F4BF2B11F460FF04C01F
:1044A0006F5F7F4F8F4F9F4F089597FB072E16F436
:1044B000009407D077FD09D00E946F2207FC05D039
:1044C0003EF4909581959F4F0895709561957F4F2B
:1044D0000895EE0FFF1F0590F491E02D0994AA1B9B
:1044E000BB1B51E107C0AA1FBB1FA617B70710F0DF
:1044F000A61BB70B881F991F5A95A9F78095909511
:10450000BC01CD010895F999FECF92BD81BDF89A05
:10451000992780B50895A8E1B0E042E050E00C94FE
:10452000AB22262FF999FECF92BD81BDF89A019753
:1045300000B4021639F01FBA20BD0FB6F894FA9AEB
:10454000F99A0FBE08950196272F0E9492220C948B
:104550009122DC01CB01FC01F999FECF06C0F2BD2E
:10456000E1BDF89A319600B40D9241505040B8F731
:104570000895F894FFCF2E053A053E0542054605FD
:104580004A054E05520556055A055E056205660543
:104590006A056E05720576057A05B70BB70B0F0C29
:1045A0000F0C530C6F0CE70BE70B7A0CE70B420D6B
:1045B000420DAD0DE70BE70BB60DE71F0C20F02009
:0E45C0000C20F0203C205D20F020B220BE2018
:1045CE00CB012808140A321E441AD41AB11A7A1AC8
:1045DE00471A019392323331F79190946697F6F51C
:1045EE00F4404D36391708CA0794075B07EE0607E5
:0645FE0007200739070049
:00000001FF
